:100000000C943C000C9459000C9459000C94590029
:100010000C9459000C9459000C9459000C945900FC
:100020000C9459000C9459000C9459000C945900EC
:100030000C9459000C94C0010C9459000C94590074
:100040000C94DA010C94A4000C9459000C945900FF
:100050000C9459000C9459000C9459000C945900BC
:100060000C9459000C9496010C9459000C9459006E
:100070000C9459000C94590011241FBECFEFCDBF32
:10008000DFE3DEBF28E3A4E2B8E301C01D92AC3693
:10009000B207E1F718E3A0E0B8E3E0EBF2E102C059
:1000A00005900D92A432B107D9F70E94F4010C9487
:1000B00042090C9400008091040887FFFCCF8091D6
:1000C000000890E008959091040895FFFCCF80937C
:1000D0000208082E000C990B0895CF931092213836
:1000E00010922238C091623820913F3830914038C8
:1000F00050E040E065ED7CED82E390E00E94040674
:100100008C2F0C2E000C990BC7FF18C09195819570
:10011000910902C0220F331F8A95E2F72093360A15
:100120003093370A8091360A9091370A96958795D1
:100130008093380A9093390ACF91089502C035957B
:100140002795CA95E2F7EACF1F920F920FB60F924A
:1001500011242F933F934F935F936F937F938F93CC
:100160009F93AF93BF93CF93DF93EF93FF938091D0
:10017000000880930208209164383091653821305E
:10018000310509F47AC048F12230310509F48EC0F6
:100190008091213890912238892B61F481E090E0A0
:1001A00080932138909322381092380A1092390A9D
:1001B0000E946D00FF91EF91DF91CF91BF91AF91C0
:1001C0009F918F917F916F915F914F913F912F916F
:1001D0000F900FBE0F901F901895893309F43FC000
:1001E000D8F4813379F180F48E3281F18033F1F1EA
:1001F0008C3271F680916238833054F68091623887
:100200008F5F80936238C4CF833381F0C8F084332A
:1002100009F0BECF84E017C08F3609F148F48B3661
:1002200049F38C3699F0853609F0B2CF83E00BC0E4
:10023000813741F0D8F0823769F3873709F0A8CFCA
:1002400082E001C081E080936338A2CF8091623860
:100250008F3F0CF49DCF809162388150D2CF81E0E6
:1002600090E0809364389093653892CF85E090E079
:1002700080936038909361388BCF20ED280F2A301F
:10028000B8F19FE9980F29EA280F963088F18091FC
:100290005B38883008F47CCF10925B3882E0809322
:1002A0005A38109264381092653872CFE0915938FC
:1002B000A5E4B8E3E11118C08A3099F3882309F462
:1002C00067CFE43108F064CFAE2FB0E0AB5BB74C42
:1002D0008C93EF5FE0935938F0E0EB5BF74C1082C2
:1002E00057CFED01219718829D919111FACFE4CF5C
:1002F00080915C3890915D38A0915E38B0915F3804
:1003000034E0880F991FAA1FBB1F3A95D1F7822BA3
:1003100080935C3890935D38A0935E38B0935F38DB
:1003200080915B388F5F80935B38B1CF1F920F92C3
:100330000FB60F9211242F938F939F9390910804DF
:10034000209120382927909143388091443889277B
:100350008223809344389095922390934338209140
:100360002038892382278093203881E08093960A61
:100370009F918F912F910F900FBE0F901F90189506
:100380001F920F920FB60F9211248F939F9380911B
:100390004138909142380196809341389093423889
:1003A00081E08093860A9F918F910F900FBE0F90EE
:1003B0001F9018951F920F920FB60F9211248F93D2
:1003C000EF93FF93E0E0F4E082E086838583E0EC46
:1003D000F8E0838180688383FF91EF918F910F9084
:1003E0000FBE0F901F901895CF93DF9300D01F92F0
:1003F000CDB7DEB7F89495E09093210488E0809320
:10040000140480931504809316048093170483E1E9
:100410008093010A1092280A1092290A81E08093A1
:10042000000A8093E3059093410492E090930504C1
:100430009093010430E23093C00824E02093C10877
:100440008093C2082091C00821602093C00845E035
:100450005DE040938C0A50938D0A8093850A8093C7
:10046000800A1092810A40939C0A50939D0A8093BF
:10047000950A8093900A4CE655E040930808509303
:10048000090820E82093050820EC209306088093B3
:100490000006109201063093020680E4809308065D
:1004A00080E38093090690930C0681E180930A060D
:1004B000789484E098E380936838909369388093C7
:1004C0006638909367388FEF8093C408812C912C05
:1004D0005401412C512C32011982D12C2224239415
:1004E000312C4091100650911106609112067091C6
:1004F0001306ECE07695679557954795EA95D1F701
:1005000095E7949F9001959F300D112428503F4FFF
:1005100020933D3830933E38C0902038E0916038C9
:10052000F0916138E730F10508F059C0E656FD4F0B
:100530000C942306A1020A0348037305C9058E041F
:10054000C90480911E3890911F38B0E0A0E0841556
:100550009505A605B70539F482E090E080936038F0
:10056000909361383CC010924138109242384091CB
:100570001A3850911B3860911C3870911D38DB017E
:10058000CA01B695A7959795879540FF08C0EBEAF5
:100590008E27ECE39E27E2E0AE27E2EEBE278093B3
:1005A0001A3890931B38A0931C38B0931D382092B2
:1005B000603830926138FFEF4F1A5F0A6F0A7F0A86
:1005C00083708230B9F08330E9F0813051F082E5F8
:1005D00091E080933F38909340382EEB2A838C2D06
:1005E00080CF8CE191E080933F38909340389BEE30
:1005F0009A83F5CFE3ECF1E0E0933F38F093403895
:10060000FEE342C189EA90E080933F3890934038FE
:100610009BE6EECF80913D3890913E382091413855
:1006200030914238969587952817390730F40E9403
:100630006D008FEF8093C408D2CF20914138309164
:10064000423880913D3890913E382817390760F440
:1006500020922138309222381092380A1092390AAA
:10066000EA81E093C408BBCF2091413830914238F1
:1006700080913D3890913E382817390708F4AFCF64
:100680008FEF8093C4081092603810926138A7CF22
:10069000FA81F093C4082091213830912238211535
:1006A000310551F12130310509F099CF9C2D9095FC
:1006B000892390916338282F207130E041E050E089
:1006C000913011F050E040E0242B352B232B09F41E
:1006D000B8C082E591E080933F3890934038FFEFB7
:1006E0008F1A9F0AAF0ABF0A1092413810924238FF
:1006F0000E946D001B8271CF90913C38911116C001
:100700004091633880959C2D907F892390E021E073
:1007100030E0411102C030E020E0822B932B892B86
:1007200009F45DCF81E080933C3859CF2091413866
:100730003091423880913D3890913E3828173907E2
:1007400008F44DCF20922138309222381092380A86
:100750001092390A10926338109241381092423840
:1007600040911638509117386091183870911938A7
:10077000DB01CA01B695A7959795879540FF08C0FC
:100780002BEA82272CE3922722E0A22722EEB2272F
:100790008093163890931738A0931838B09319386F
:1007A00083704B81481330C020911E3830911F3820
:1007B000C901B0E0A0E088159905AA05BB0509F0BC
:1007C0000ECF64E670E00E94F005482FC9016AE090
:1007D00070E00E94F00589834A3098F42F5F3F4F04
:1007E00020931E3830931F3883E090E08093603868
:1007F00090936138812C912C5401412C512C320161
:10080000EECE4A50D394E8CF82E992E90E9468067E
:10081000ECE9F2E9FF93EF930E944B0610921E3829
:1008200010921F3882E090E080936438909365388E
:10083000E6E0F0E0E0936038F09361380F900F90BD
:10084000D9CF90916338282F207230E041E050E0FA
:10085000923011F050E040E0242B352B232BB1F0E7
:100860008CE191E080933F38909340389FEF891A54
:10087000990AA90AB90A10924138109242380E9486
:100880006D00E1E0EB83FBEEFA83A9CE9091633833
:10089000282F207430E041E050E0933011F050E018
:1008A00040E0242B352B232BA1F083EC91E08093A7
:1008B0003F38909340389FEF891A990AA90AB90ADC
:1008C00010924138109242380E946D00E2E0EB83B2
:1008D00097CE40916338807890E021E030E044305A
:1008E00011F030E020E0822B932B2FEF892B09F4BD
:1008F00075CE89EA90E080933F38909340389FEF1F
:10090000891A990AA90AB90A1092413810924238F4
:100910000E946D00E3E0EB83FBE6B6CF80911238D6
:1009200090911338A0911438B091153880931638EF
:1009300090931738A0931838B093193880915A388B
:10094000882399F080915C3890915D38A0915E3851
:10095000B0915F388093163890931738A093183869
:10096000B093193881E080935A3820921E38309223
:100970001F3810924138109242381092623810920B
:10098000603810926138812C912C5401412C512CEB
:10099000320180915A38823009F07CC080915C38F5
:1009A00090915D38A0915E38B0915F3880931A388D
:1009B00090931B38A0931C38B0931D388093163841
:1009C00090931738A0931838B093193881E080932A
:1009D0005A38209141383091423880916438909152
:1009E00065382838334118F4892B09F072C06091BA
:1009F0001E3870911F3802E318E388E2E82E88E37E
:100A0000F82E9701C801DC010296F9014D915C9125
:100A10001197452B51F02F5F3F4F4081042E000C62
:100A2000550B4617570708F04EC085E498E38D93A1
:100A30009C9360838AE090E00E946106F8018191B6
:100A400091918F010097B1F0F7014081242F042E7E
:100A5000000C330B3F934F939F938F9389EA92E956
:100A60009F938F930E944B060F900F900F900F90C3
:100A70000F900F90FFEFEF1AFF0A28E30C331207D5
:100A8000E9F6109264381092653820921E38309240
:100A90001F38F9CD8091163890911738A0911838E9
:100AA000B09119388093123890931338A09314386A
:100AB000B093153880931A3890931B38A0931C3844
:100AC000B0931D3886CFE8E38C339E0709F09BCFA7
:100AD000B1CF809141389091423880FF02C087E7C2
:100AE000A9CD87EFA7CD2091413830914238809130
:100AF0003D3890913E382817390708F43FC080915F
:100B00005A38882311F180915C3890915D38A0911A
:100B10005E38B0915F3880931A3890931B38A09359
:100B20001C38B0931D388093163890931738A093D3
:100B30001838B093193881E080935A3810924138B0
:100B40001092423884E090E009CD80911238909163
:100B50001338A0911438B091153880931A389093B7
:100B60001B38A0931C38B0931D388093163890938F
:100B70001738A0931838B0931938E0CF80914138D6
:100B80009091423880FF03C01092C40828CD80E8BD
:100B900051CD209141383091423880913D3890912B
:100BA0003E382817390728F0109241381092423801
:100BB0006ACD809141389091423880FF07C0998179
:100BC000E92FF0E0E857FD46808134CDDD2009F4BF
:100BD00006CDED2DF0E0E857FD46808180682ACDF6
:100BE000AA1BBB1B51E107C0AA1FBB1FA617B70753
:100BF00010F0A61BB70B881F991F5A95A9F780956F
:100C00009095BC01CD010895052E97FB1EF400942C
:100C10000E941B0657FD07D00E94290607FC03D03F
:100C20004EF40C941B0650954095309521953F4FFE
:100C30004F4F5F4F089590958095709561957F4FC8
:100C40008F4F9F4F0895EE0FFF1F0590F491E02DF9
:100C50000994A1E21A2EAA1BBB1BFD010DC0AA1FFD
:100C6000BB1FEE1FFF1FA217B307E407F50720F015
:100C7000A21BB30BE40BF50B661F771F881F991F90
:100C80001A9469F760957095809590959B01AC01D9
:100C9000BD01CF010895B0E0A0E0E1E5F6E00C94DD
:100CA0002109AE014B5F5F4FFA0161917191AF0174
:100CB00080916838909169380E949306E2E00C9424
:100CC0003A0960916838709169380E9483080895E4
:100CD0000F931F93CF93DF93E0916838F0916938B9
:100CE0002381EC0110E000E021FD08C00FEF1FEFB1
:100CF00014C00995892B11F00FEF1FEF89916091B6
:100D0000683870916938DB011896ED91FC9181117A
:100D1000F0CF8AE00995892B49F7C801DF91CF917F
:100D20001F910F910895ABE0B0E0E9E9F6E00C9473
:100D300011097C013B018A01FC0116821782838123
:100D400081FFC8C1CE0101965C01F7019381F301D7
:100D500093FD859193FF81913F01882309F453C14D
:100D6000853239F493FD859193FF81913F0185325E
:100D700029F4B70190E00E948308E7CF912C212C41
:100D8000312CFFE1F31538F08B3211F190F4803201
:100D900009F1833229F137FC3CC020ED280F2A30BD
:100DA00050F536FE20C08AE0989E200D1124922E28
:100DB00006C08D3291F0803371F7689430F8F301FA
:100DC00093FD859193FF81913F018111DACF21C07D
:100DD000689431F8689432F8F2CF689433F8EFCF22
:100DE000689434F8ECCFEAE02E9E200D1124222ED8
:100DF000689435F8E4CF8E3229F436FC04C1689447
:100E000036F8DDCF8C3619F4689437F8D8CF8836A9
:100E1000B1F2982F9F7D95549330E0F08336A1F185
:100E20008337C1F1833509F063C02801F2E04F0E2A
:100E3000511CF801C080D180692D70E036FC02C0E1
:100E40006FEF7FEFC6010E946D084C01689437F880
:100E500082010AC00C5F1F4FFFE3F983882483944B
:100E6000912C6501E89437F833FE2DC0522C811483
:100E7000910471F5552009F468CFB70180E290E044
:100E80000E9483085A94F6CFF801808189830E5F0F
:100E90001F4FE4CF2801F2E04F0E511CF801C08033
:100EA000D180692D70E036FC02C06FEF7FEFC60184
:100EB0000E9478084C018201D5CFB70180E290E012
:100EC0000E9483082A942814190409F0B0F7CECFA1
:100ED000F60137FC859137FE81916F01B70190E0F3
:100EE0000E94830851105A94F1E08F1A9108BFCFE5
:100EF000843619F0893609F077C0F80137FE6BC0E7
:100F000060817181828193810C5F1F4FF32DFF7689
:100F10003F2E97FF09C090958095709561957F4F02
:100F20008F4F9F4F689437F82AE030E0A5010E9468
:100F3000B308C82ECA188C2C432C36FE0CC0E8947B
:100F400040F8C91440F434FE05C032FC03C0F32D50
:100F5000FE7E4F2E892C44FE95C0FE01EC0DF11D46
:100F60008081803309F087C0242D297E422E842D74
:100F70008870582E43FC95C040FE8FC09C2C821474
:100F800018F42C0C922C981844FE91C0B70180E301
:100F900090E00E94830842FE09C088E790E041FE8D
:100FA00002C088E590E0B7010E948308C91408F4E4
:100FB0008AC0CA94D12C9FEFC91AD90ACA0CDB1C6B
:100FC000F60182916F01B70190E00E948308AC1492
:100FD000BD04B1F74FCF60817181072E000C880BE3
:100FE000990B0E5F1F4F92CFD32CE894D4F82AE0D0
:100FF00030E0853739F1232D297FD22E8F3601F14C
:1010000048F48835A9F0F701868197812B96E2E1B3
:101010000C942A09803749F08837A9F7D4FE02C01A
:101020006894D2F820E130E00DC06894D4F8F6CF8F
:1010300034FE03C0822F8660D82E20E132E002C049
:1010400028E030E0F801D7FE0FC060817181828115
:1010500093810C5F1F4FA5010E94B308C82ECA18C8
:101060003D2CE89437F867CF6081718190E080E093
:101070000E5F1F4FF0CF42FC02C0839478CF839461
:10108000839475CF842D867809F471CFF6CFB7019C
:1010900080E290E00E94830883948214C0F3512C74
:1010A00073CF522C5818821408F46ECFF8CF842DC9
:1010B000867809F47BCF8BE241FE80E247FC8DE22B
:1010C000B70190E071CFB70180E390E00E94830800
:1010D0009A946CCF8FEF9FEF99CFFC0105906150F0
:1010E00070400110D8F7809590958E0F9F1F08953E
:1010F000FC016150704001900110D8F780959095E7
:101100008E0F9F1F08950F931F93CF93DF93182F78
:10111000092FEB018B8181FD09C01FEF0FEF812F9C
:10112000902FDF91CF911F910F91089582FF14C0EE
:101130002E813F818C819D81281739073CF4E881FD
:10114000F981CF0101968883998310838E819F81D5
:1011500001968E839F83E3CFE885F985812F0995DA
:10116000892BA1F3DACFFA01AA27283051F12031D7
:1011700081F1E8946F936E7F6E5F7F4F8F4F9F4F2B
:10118000AF4FB1E03ED0B4E03CD0670F781F891F6D
:101190009A1FA11D680F791F8A1F911DA11D6A0F3B
:1011A000711D811D911DA11D20D009F468943F91EE
:1011B0002AE0269F11243019305D3193DEF6CF01ED
:1011C0000895462F4770405D4193B3E00FD0C9F7B3
:1011D000F6CF462F4F70405D4A3318F0495D31FD20
:1011E0004052419302D0A9F7EACFB4E0A695979573
:1011F000879577956795BA95C9F700976105710549
:1012000008959B01AC010A2E069457954795379592
:101210002795BA95C9F7620F731F841F951FA01DEC
:1012200008952F923F924F925F926F927F928F928A
:101230009F92AF92BF92CF92DF92EF92FF920F9365
:101240001F93CF93DF93CDB7DEB7CA1BDB0BCDBFA8
:10125000DEBF09942A88398848885F846E847D843B
:101260008C849B84AA84B984C884DF80EE80FD804E
:101270000C811B81AA81B981CE0FD11DCDBFDEBFEC
:08128000ED010895F894FFCF81
:10128800086B44412311104B000147414D45204F45
:1012980056455200456E746572206E616D653A2040
:0812A8000025732025640A00F3
:1012B000D007D007000000030000000063005B00BF
:1012C0000000510823115108231151082311010076
:0412D000FF0100001A
:00000001FF
