:100000000C943C000C9459000C9459000C94590029
:100010000C9459000C9459000C9459000C945900FC
:100020000C9459000C9459000C9459000C945900EC
:100030000C9459000C948E010C9459000C945900A6
:100040000C94A8010C94AB000C9459000C9459002A
:100050000C9459000C9459000C9459000C945900BC
:100060000C9459000C9464010C9459000C945900A0
:100070000C9459000C94590011241FBECFEFCDBF32
:10008000DFE3DEBF28E3A0E2B8E301C01D92A134A4
:10009000B207E1F718E3A0E0B8E3EAE6FAE002C04D
:1000A00005900D92A032B107D9F70E94C2010C94BD
:1000B0002E050C9400008091040887FFFCCF8091EE
:1000C000000890E008959091040895FFFCCF80937C
:1000D0000208082E000C990B0895CF93DF9310921D
:1000E0001D3810921E388091373820912B3830916E
:1000F0002C38C091373850E040E087FF20C065EDD4
:100100007CED82E390E00E94ED04DD27C1950CF4C4
:10011000D09502C0220F331FCA95E2F72093360A0A
:100120003093370A8091360A9091370A96958795D1
:100130008093380A9093390ADF91CF91089565ED45
:100140007CED82E390E00E94ED0402C03595279596
:10015000CA95E2F7E3CF1F920F920FB60F921124C8
:100160002F933F934F935F936F937F938F939F93BF
:10017000AF93BF93EF93FF9380910008209139389C
:1001800030913A382115310531F12130310579F1BD
:1001900080911D3890911E38892B61F481E090E0A8
:1001A00080931D3890931E381092380A1092390AA5
:1001B0000E946D00FF91EF91BF91AF919F918F9140
:1001C0007F916F915F914F913F912F910F900FBE53
:1001D0000F901F901895893309F456C058F5813354
:1001E000D1F108F58C32E9F18E3209F444C020EDEA
:1001F000280F2A3008F44FC09FE9980F29EA280FEA
:10020000963008F448C0809132388F5F809332383E
:10021000883008F4BDCF82E08093313810923938AD
:1002200010923A38B5CF833371F0C8F08433F9F6C1
:1002300094E012C08F3641F140F48B3691F08C3649
:10024000D1F08536A1F693E007C0823789F387376E
:1002500031F0813761F691E090933838C8CF92E061
:10026000FBCF90913738933014F6909137389F5FD9
:1002700090933738BCCF909137389F3F0CF4B7CF6D
:10028000909137389150F4CF21E030E02093393805
:1002900030933A38ACCF8091333890913438A09174
:1002A0003538B091363834E0880F991FAA1FBB1F2C
:1002B0003A95D1F7822B8093333890933438A093BA
:1002C0003538B09336389FCF1F920F920FB60F92EA
:1002D00011242F938F939F939091080420911C38A1
:1002E000292790912F388091303889278223809355
:1002F00030389095922390932F3820911C38892381
:10030000822780931C3881E08093960A9F918F9179
:100310002F910F900FBE0F901F9018951F920F9264
:100320000FB60F9211248F939F9380912D38909147
:100330002E38019680932D3890932E3881E080934B
:10034000860A9F918F910F900FBE0F901F90189566
:100350001F920F920FB60F9211248F93EF93FF937A
:10036000E0E0F4E082E086838583E0ECF8E08381DE
:1003700080688383FF91EF918F910F900FBE0F9054
:100380001F901895CF93DF9300D01F92CDB7DEB7A3
:10039000F89495E09093210488E08093140480936E
:1003A0001504809316048093170483E18093010A57
:1003B0001092280A1092290A81E08093000A809303
:1003C000E3059093410492E0909305049093010417
:1003D00030E23093C00824E02093C1088093C20823
:1003E0002091C00821602093C00845E05DE0409363
:1003F0008C0A50938D0A8093850A8093800A10920C
:10040000810A40939C0A50939D0A8093950A809399
:10041000900A4CE655E0409308085093090820E8FC
:100420002093050820EC2093060880930006109284
:1004300001063093020680E48093080680E38093EF
:10044000090690930C0681E180930A06789484E073
:1004500098E380933D3890933E3880933B38909357
:100460003C388FEF8093C408C12CD12C7601812CAD
:10047000912C540119821B824FEF66246394712CD6
:10048000A1E52A2EA8E03A2EA3E24A2EA1E15A2E97
:100490008091100690911106A0911206B09113065A
:1004A000ECE0B695A79597958795EA95D1F755E72E
:1004B000589F9001599F300D112428503F4F209391
:1004C000293830932A3800911C3880912738909130
:1004D00028388230910509F4D4C0D8F4009709F483
:1004E00047C08130910509F000C120912938309131
:1004F0002A3840912D3850912E383695279542173D
:10050000530708F094C00E946D008FEF8093C408D9
:10051000ECC08330910509F4F1C1049709F0E5C0FE
:1005200080913138823099F480911238909113384B
:10053000A0911438B09115388093163890931738DD
:10054000A0931838B093193851E050933138209166
:100550002D3830912E388091293890912A382817DB
:10056000390708F4C1C160921A3870921B3884C0F0
:1005700080911A3890911B38B0E0A0E08815990559
:10058000AA05BB0539F482E090E080932738909368
:100590002838ABC010922D3810922E384091163862
:1005A000509117386091183870911938DB01CA01E1
:1005B000B695A7959795879540FF08C02BEA8227A7
:1005C0002CE3922722E0A22722EEB227809316384E
:1005D00090931738A0931838B093193883708230ED
:1005E000B1F08330E1F0813041F482E591E0809315
:1005F0002B3890932C389EEB9A832FEF821A920A15
:10060000A20AB20A60922738709228386EC08CE134
:1006100091E080932B3890932C389BEEEDCF83ECB8
:1006200091E080932B3890932C389EE3E5CF409156
:100630002D3850912E382091293830912A38421780
:10064000530760F480931D3890931E381092380A37
:100650001092390A5A815093C40847C020912D380E
:1006600030912E388091293890912A3828173907EF
:10067000E0F18FEF8093C408109227381092283849
:1006800034C08A818093C40820911D3830911E386F
:100690002115310561F12130310539F5802F809523
:1006A000842390913838282F207130E041E050E0C9
:1006B000913011F050E040E0242B352B232B09F42E
:1006C000A9C082E591E080932B3890932C389FEF5E
:1006D000C91AD90AE90AF90A10922D3810922E384F
:1006E0000E946D0011E02EEB2A83402FD1CE809125
:1006F0002638811115C0509138384095802F807F61
:10070000842390E021E030E0511102C030E020E08D
:10071000822B932B892B49F391E090932638E5CFD8
:1007200020912D3830912E388091293890912A3897
:1007300028173907D0F260921D3870921E38109237
:10074000380A1092390A1092383810922D381092C7
:100750002E384091123850911338609114387091AE
:100760001538DB01CA01B695A7959795879540FF87
:1007700008C02BEA82272CE3922722E0A22722EE50
:10078000B2278093123890931338A0931438B09303
:100790001538837018133BC080911A3890911B381C
:1007A000B0E0A0E08C159D05AE05BF0509F09DCF1A
:1007B00080911A3890911B3864E670E00E94D90449
:1007C000282F80911A3890911B386AE070E00E94BF
:1007D000D90489832A30B0F480911A3890911B385B
:1007E000019680931A3890931B3883E090E08093B1
:1007F000273890932838C12CD12C7601812C912C4C
:10080000540173CF2A505B815F5F5B83E3CF84E049
:1008100090E0EDCF90913838282F207230E041E001
:1008200050E0923011F050E040E0242B352B232B88
:10083000A1F08CE191E080932B3890932C389FEFBE
:10084000C91AD90AE90AF90A10922D3810922E38DD
:100850000E946D0012E02BEE47CF90913838282F80
:10086000207430E041E050E0933011F050E040E07F
:10087000242B352B232BA1F083EC91E080932B3894
:1008800090932C389FEFC91AD90AE90AF90A1092F5
:100890002D3810922E380E946D0013E02EE324CFE5
:1008A00040913838807890E021E030E0443011F019
:1008B00030E020E0822B932B2FEF892B09F414CF0B
:1008C00089EA90E080932B3890932C389FEFC91AD7
:1008D000D90AE90AF90A10922D3810922E380E948E
:1008E0006D0014E02BE600CF80912D3890912E38CA
:1008F00080FF02C087E70ACE87EF08CE20912D380F
:1009000030912E388091293890912A38281739074C
:1009100088F1809131388823E1F0809133389091CB
:100920003438A0913538B09136388093163890938A
:100930001738A0931838B0931938809312389093D1
:100940001338A0931438B093153881E08093313870
:1009500093CE209216383092173840921838509221
:10096000193820921238309213384092143850922D
:10097000153882CE80912D3890912E3880FF07C097
:100980009981E92FF0E0E05AF5478081BFCD809151
:100990001A3890911B380A9720F42B81222309F4EE
:1009A000A4CE5B81E52FF0E0E05AF54780818068B6
:1009B000ADCDAA1BBB1B51E107C0AA1FBB1FA617C9
:1009C000B70710F0A61BB70B881F991F5A95A9F7F8
:1009D00080959095BC01CD010895052E97FB1EF4DE
:1009E00000940E94040557FD07D00E940C0507FCE7
:1009F00003D04EF40C940405509540953095219504
:100A00003F4F4F4F5F4F089590958095709561953A
:100A10007F4F8F4F9F4F0895A1E21A2EAA1BBB1B39
:100A2000FD010DC0AA1FBB1FEE1FFF1FA217B307BA
:100A3000E407F50720F0A21BB30BE40BF50B661FD0
:100A4000771F881F991F1A9469F760957095809594
:100A500090959B01AC01BD01CF010895F894FFCFA3
:0A0A6000086B44412311104B000104
:100A6A00D007D007000000030000000063005B000D
:100A7A00000051082311510823110100FF01000051
:00000001FF
