:100000000C943C000C9459000C9459000C94590029
:100010000C9459000C9459000C9459000C945900FC
:100020000C9459000C9459000C9459000C945900EC
:100030000C9459000C946D010C9459000C945900C7
:100040000C9487010C94AB000C9459000C9459004B
:100050000C9459000C9459000C9459000C945900BC
:100060000C9459000C9443010C9459000C945900C1
:100070000C9459000C94590011241FBECFEFCDBF32
:10008000DFE3DEBF28E3A0E2B8E301C01D92A134A4
:10009000B207E1F718E3A0E0B8E3EEEAF9E002C046
:1000A00005900D92A032B107D9F70E94A1010C94DE
:1000B000D0040C9400008091040887FFFCCF80914D
:1000C000000890E008959091040895FFFCCF80937C
:1000D0000208082E000C990B0895CF93DF9310921D
:1000E0001D3810921E388091383820912C3830916C
:1000F0002D38C091383850E040E087FF20C065EDD2
:100100007CED82E390E00E948F04DD27C1950CF422
:10011000D09502C0220F331FCA95E2F72093360A0A
:100120003093370A8091360A9091370A96958795D1
:100130008093380A9093390ADF91CF91089565ED45
:100140007CED82E390E00E948F0402C035952795F4
:10015000CA95E2F7E3CF1F920F920FB60F921124C8
:100160002F933F934F935F936F937F938F939F93BF
:10017000AF93BF93EF93FF9380910008209139389C
:1001800030913A382115310531F12130310551F1E5
:1001900080911D3890911E38892B61F481E090E0A8
:1001A00080931D3890931E381092380A1092390AA5
:1001B0000E946D00FF91EF91BF91AF919F918F9140
:1001C0007F916F915F914F913F912F910F900FBE53
:1001D0000F901F9018958933B1F1E8F48C3209F132
:1001E0008E3249F120ED280F2A30A0F19FE9980FB7
:1001F00029EA280F963070F1809133388F5F809311
:100200003338883028F282E08093323810923938BF
:1002100010923A38BDCF8C3671F08F36A1F08B3604
:1002200009F7909138389330ECF6909138389F5F09
:1002300090933838D7CF909138389F3F9CF2909167
:1002400038389150F5CF21E030E0209339383093A1
:100250003A38C8CF8091343890913538A0913638EB
:10026000B091373834E0880F991FAA1FBB1F3A9509
:10027000D1F7822B8093343890933538A093363859
:10028000B0933738B9CF1F920F920FB60F92112447
:100290002F938F939F939091080420911C382927C6
:1002A000909130388091313889278223809331387A
:1002B000909592239093303820911C38892382277F
:1002C00080931C3881E08093960A9F918F912F91A3
:1002D0000F900FBE0F901F9018951F920F920FB6A0
:1002E0000F9211248F939F9380912E3890912F38E5
:1002F000019680932E3890932F3881E08093860A60
:100300009F918F910F900FBE0F901F9018951F9285
:100310000F920FB60F9211248F93EF93FF93E0E0AB
:10032000F4E082E086838583E0ECF8E083818068F6
:100330008383FF91EF918F910F900FBE0F901F90CD
:100340001895CF93DF9300D01F92CDB7DEB7F89406
:1003500095E09093210488E0809314048093150421
:10036000809316048093170483E18093010A10920E
:10037000280A1092290A81E08093000A8093E305FD
:100380009093410492E0909305049093010430E22D
:100390003093C00824E02093C1088093C2082091C4
:1003A000C00821602093C00845E05DE040938C0ABE
:1003B00050938D0A8093850A8093800A1092810A57
:1003C00040939C0A50939D0A8093950A8093900ACB
:1003D0004CE655E0409308085093090820E8209324
:1003E000050820EC20930608809300061092010671
:1003F0003093020680E48093080680E38093090628
:1004000090930C0681E180930A06789484E098E347
:1004100080933D3890933E3880933B3890933C389E
:100420008FEF8093C408C12CD12C7601812C912CA4
:10043000540119821B822FEF66246394712CA1E56D
:100440002A2EA8E03A2EA3E24A2EA1E15A2E40918C
:100450001006509111066091120670911306ECE09F
:100460007695679557954795EA95D1F735E7349F87
:10047000C001359F900D112488509F4F80932A38DA
:1004800090932B3800911C3880912838909129380E
:100490008230910509F4D8C0F0F4009709F449C0FE
:1004A00081309105B1F420912A3830912B38409158
:1004B0002E3850912F38369527954217530708F05C
:1004C00098C00E946D008FEF8093C40802C02FEF88
:1004D0002A83202FBCCF8330910509F4B1C1049742
:1004E000C1F780913238823099F48091123890911E
:1004F0001338A0911438B091153880931638909322
:100500001738A0931838B093193831E03093323847
:1005100020912E3830912F3880912A3890912B38A5
:100520002817390708F482C160921A3870921B3874
:1005300086C080911A3890911B38B0E0A0E08815F1
:100540009905AA05BB0539F482E090E0809328382C
:1005500090932938BECF10922E3810922F384091A8
:100560001638509117386091183870911938DB019E
:10057000CA01B695A7959795879540FF08C02BEAC5
:1005800082272CE3922722E0A22722EEB227809333
:10059000163890931738A0931838B0931938837091
:1005A000823069F08330E9F0813089F482E591E0AE
:1005B00080932C3890932D389EEB9A8308C02CE1C1
:1005C00031E020932C3830932D383BEE3A832FEFD7
:1005D000821A920AA20AB20A6092283870922938C6
:1005E00078CF83EC91E080932C3890932D389EE364
:1005F000E4CF40912E3850912F3820912A383091F5
:100600002B384217530760F480931D3890931E389F
:100610001092380A1092390A3A813093C40859CF9F
:1006200020912E3830912F3880912A3890912B3894
:100630002817390708F44DCF8FEF8093C408109224
:1006400028381092293845CF8A818093C408809138
:100650001D3890911E380097E1F0019709F039CFCD
:10066000802F8095282324FF9FC082E591E080930E
:100670002C3890932D389FEFC91AD90AE90AF90A44
:1006800010922E3810922F380E946D0011E02EEB40
:100690001FCF8091273881110AC02095802F807F3D
:1006A000282309F416CF91E09093273812CF209198
:1006B0002E3830912F3880912A3890912B38281776
:1006C000390708F406CF60921D3870921E381092D8
:1006D000380A1092390A10922E3810922F38409111
:1006E0001238509113386091143870911538DB012D
:1006F000CA01B695A7959795879540FF08C02BEA44
:1007000082272CE3922722E0A22722EEB2278093B1
:10071000123890931338A0931438B093153883701F
:1007200018133BC080911A3890911B38B0E0A0E0BC
:100730008C159D05AE05BF0509F0CBCE80911A380A
:1007400090911B3864E670E00E947B04282F809112
:100750001A3890911B386AE070E00E947B0489830C
:100760002A30B0F480911A3890911B38019680930A
:100770001A3890931B3883E090E080932838909348
:100780002938C12CD12C7601812C912C5401A1CE79
:100790002A503B813F5F3B83E3CF24E030E020934E
:1007A000283830932938EDCF25FF14C08CE191E033
:1007B00080932C3890932D389FEFC91AD90AE90AF3
:1007C000F90A10922E3810922F380E946D0012E014
:1007D0002BEE7ECE26FF14C083EC91E080932C3864
:1007E00090932D389FEFC91AD90AE90AF90A109295
:1007F0002E3810922F380E946D0013E02EE368CE41
:1008000027FF65CE89EA90E080932C3890932D38AD
:100810009FEFC91AD90AE90AF90A10922E381092E4
:100820002F380E946D0014E02BE652CE80912E38B6
:1008300090912F3880FF02C087E746CE87EF44CEE5
:1008400020912E3830912F3880912A3890912B3872
:100850002817390788F1809132388823E1F0809198
:10086000343890913538A0913638B091373880932C
:10087000163890931738A0931838B093193880938E
:10088000123890931338A0931438B093153881E040
:1008900080933238D4CE2092163830921738409256
:1008A00018385092193820921238309213384092EA
:1008B000143850921538C3CE80912E3890912F382D
:1008C00080FF07C09981E92FF0E0EC55F647808161
:1008D000FBCD80911A3890911B380A9720F42B8118
:1008E000222309F4F6CD3B81E32FF0E0EC55F647E7
:1008F00080818068E9CDAA1BBB1B51E107C0AA1FFC
:10090000BB1FA617B70710F0A61BB70B881F991FB0
:100910005A95A9F780959095BC01CD010895052EB3
:1009200097FB1EF400940E94A60457FD07D00E9476
:10093000AE0407FC03D04EF40C94A60450954095E9
:10094000309521953F4F4F4F5F4F0895909580957B
:10095000709561957F4F8F4F9F4F0895A1E21A2E9A
:10096000AA1BBB1BFD010DC0AA1FBB1FEE1FFF1F53
:10097000A217B307E407F50720F0A21BB30BE40BA3
:10098000F50B661F771F881F991F1A9469F76095EA
:100990007095809590959B01AC01BD01CF010895A4
:0409A000F894FFCFF9
:0A09A400086B44412311104B0001C1
:1009AE00D007D007000000030000000063005B00CA
:1009BE00000051082311510823110100FF0100000E
:00000001FF
