:100000000C943C000C9459000C9459000C94590029
:100010000C9459000C9459000C9459000C945900FC
:100020000C9459000C9459000C9459000C945900EC
:100030000C9459000C94A7010C9459000C9459008D
:100040000C94C1010C949B000C9459000C94590021
:100050000C9459000C9459000C9459000C945900BC
:100060000C9459000C947D010C9459000C94590087
:100070000C9459000C94590011241FBECFEFCDBF32
:10008000DFE3DEBF28E3A4E2B8E301C01D92A43C95
:10009000B207E1F718E3A0E0B8E3EAE6F2E102C054
:1000A00005900D92A432B107D9F70E94DB010C94A0
:1000B0001B090C9400008091040887FFFCCF8091FD
:1000C000000890E008959091040895FFFCCF80937C
:1000D0000208082E000C990B0895109221381092F6
:1000E00022382091BA38809197389091983827FF1C
:1000F0001AC02091BA38332721950CF4309502C0EC
:10010000880F991F2A95E2F78093360A9093370A51
:100110008091360A9091370A969587958093380A90
:100120009093390A08952091BA3802C09695879520
:100130002A95E2F7E9CF1F920F920FB60F92112482
:100140002F933F934F935F936F937F938F939F93DF
:10015000AF93BF93EF93FF93809100082091BC3839
:100160003091BD382130310509F476C038F12230A4
:10017000310509F48AC08091213890912238892B69
:1001800061F481E090E080932138909322381092BE
:10019000380A1092390A0E946D00FF91EF91BF91C9
:1001A000AF919F918F917F916F915F914F913F910F
:1001B0002F910F900FBE0F901F9018958933F1F17A
:1001C000D0F4813371F180F48E3279F18033E9F12A
:1001D0008C3289F68091BA3883306CF68091BA38C7
:1001E0008F5F8093BA38C7CF833379F0C0F0843300
:1001F00011F684E017C08F3609F148F48B3651F3BD
:100200008C3699F0853609F0B6CF83E00BC0813784
:1002100041F0D8F0823769F3873709F0ACCF82E03C
:1002200001C081E08093BB38A6CF8091BA388F3F60
:100230000CF4A1CF8091BA388150D3CF81E090E007
:100240008093BC389093BD3896CF85E090E0809342
:10025000B8389093B9388FCF20ED280F2A3078F135
:100260009FE9980F29EA280F963048F18091B3381A
:10027000883008F480CF1092B33882E08093B2388F
:100280001092BC381092BD3876CF8A3019F4109293
:10029000B138F6CF882309F46ECFE091B138E4315C
:1002A00008F069CFAE2FB0E0A356B74C8C93EF5F48
:1002B000E093B138F0E0E356F74C10825CCF8091C8
:1002C000B4389091B538A091B638B091B73834E0D1
:1002D000880F991FAA1FBB1F3A95D1F7822B8093D5
:1002E000B4389093B538A093B638B093B7388091AE
:1002F000B3388F5F8093B338B9CF1F920F920FB688
:100300000F9211242F938F939F9390910804209123
:100310002038292790919B3880919C388927822307
:1003200080939C389095922390939B38209120380D
:10033000892382278093203881E08093960A9F91B9
:100340008F912F910F900FBE0F901F9018951F92B5
:100350000F920FB60F9211248F939F93809199382B
:1003600090919A3801968093993890939A3881E0C9
:100370008093860A9F918F910F900FBE0F901F90D0
:1003800018951F920F920FB60F9211248F93EF932F
:10039000FF93E0E0F4E082E086838583E0ECF8E020
:1003A000838180688383FF91EF918F910F900FBEBF
:1003B0000F901F901895CF93DF9300D01F92CDB769
:1003C000DEB7F89495E09093210488E080931404BC
:1003D00080931504809316048093170483E180931F
:1003E000010A81E08093000A8093E3059093410421
:1003F00092E0909305049093010430E23093C0089A
:1004000024E02093C1088093C2082091C008216095
:100410002093C00845E05DE040938C0A50938D0A1C
:100420008093850A8093800A1092810A44E154E304
:1004300040939C0A50939D0A8093950A8093900A5A
:100440004CE655E0409308085093090820E82093B3
:10045000050820EC20930608809300061092010600
:100460003093020680E48093080680E380930906B7
:1004700090930C0681E180930A06789484E098E3D7
:100480008093C0389093C1388093BE389093BF3822
:100490008FEF8093C408C12CD12C7601412C512CB4
:1004A00032011982912C1FEF22242394312C2091A8
:1004B0001006309111064091120650911306ABEDD3
:1004C000B0E00E940A06FDE09695879577956795BE
:1004D000FA95D1F767507F4F6093953870939638AF
:1004E00080902038E091B838F091B938E730F105C4
:1004F00008F059C0E258FD4F0C9404068502EE0244
:100500002C037705CD058004BB0480911E389091A3
:100510001F38B0E0A0E084159505A605B70539F4AD
:1005200082E090E08093B8389093B9383CC0109244
:10053000993810929A3840911A3850911B3860912E
:100540001C3870911D38DB01CA01B695A7959795A7
:10055000879540FF08C0EBEA8E27ECE39E27E2E098
:10056000AE27E2EEBE2780931A3890931B38A093F3
:100570001C38B0931D382092B8383092B938FFEF4C
:100580004F1A5F0A6F0A7F0A83708230B9F0833096
:10059000E9F0813051F086E896E2809397389093A5
:1005A00098382EEB2A83182D82CF89ED9DE2809317
:1005B0009738909398389BEE9A83F5CFEFEDFCE156
:1005C000E0939738F0939838FEE34FC18CE09DE4B8
:1005D00080939738909398389BE6EECF809195382A
:1005E000909196382091993830919A3896958795C0
:1005F0002817390730F40E946D008FEF8093C408EC
:10060000D2CF2091993830919A3880919538909135
:1006100096382817390760F4209221383092223812
:100620001092380A1092390AEA81E093C408BBCFCD
:100630002091993830919A388091953890919638D8
:100640002817390708F4AFCF8FEF8093C4081092B2
:10065000B8381092B938A7CFFA81F093C4088091C6
:10066000213890912238009749F1019709F09BCFEA
:10067000882D809518238091BB38212F207130E080
:1006800041E050E0813011F050E040E0242B352B68
:10069000232B09F4C7C086E896E28093973890939D
:1006A0009838FFEFCF1ADF0AEF0AFF0A1092993845
:1006B00010929A380E946D001B8273CF80919438FB
:1006C000811117C04091BB381095882D807F182369
:1006D000812F90E021E030E0411102C030E020E0C5
:1006E000822B932B892B09F45ECF81E08093943881
:1006F0005ACF2091993830919A38809195389091BD
:1007000096382817390708F44ECF209221383092B6
:1007100022381092380A1092390A1092BB3810927F
:10072000993810929A384091163850911738609144
:10073000183870911938DB01CA01B695A7959795BD
:10074000879540FF08C02BEA82272CE3922722E0FE
:10075000A22722EEB2278093163890931738A093E1
:100760001838B093193820911E3830911F38837093
:100770004B81481330C0C901B0E0A0E08C159D0545
:10078000AE05BF0509F00FCF64E670E00E94F005EA
:10079000482FC9016AE070E00E94F00589834A3061
:1007A000B8F42F5F3F4F20931E3830931F3884E4F6
:1007B00092E90E94410683E090E08093B8389093DC
:1007C000B938C12CD12C7601412C512C3201EBCE01
:1007D0004A509394E4CF215031093F932F93E6E69A
:1007E000F2E9FF93EF930E9424068CE492E90E94C1
:1007F000410686E592E99F938F930E94240682E04A
:1008000090E08093BC389093BD38E6E0F0E0E09350
:10081000B838F093B9380F900F900F900F900F9059
:100820000F90CFCF8091BB38212F207230E041E074
:1008300050E0823011F050E040E0242B352B232B88
:10084000B1F089ED9DE280939738909398389FEFAF
:10085000C91AD90AE90AF90A1092993810929A38F5
:100860000E946D00E1E0EB83FBEEFA839CCE809169
:10087000BB38212F207430E041E050E0833011F08C
:1008800050E040E0242B352B232BA1F08FED9CE191
:1008900080939738909398389FEFC91AD90AE90A3C
:1008A000F90A1092993810929A380E946D00E2E08D
:1008B000EB838ACE4091BB381078812F90E021E005
:1008C00030E0443011F030E020E0822B932B2FEF0A
:1008D000892B09F467CE8CE09DE480939738909340
:1008E00098389FEFC91AD90AE90AF90A109299387B
:1008F00010929A380E946D00E3E0EB83FBE6B5CFDF
:100900008091123890911338A0911438B091153815
:100910008093163890931738A0931838B0931938ED
:100920008091B238882399F08091B4389091B5388D
:10093000A091B638B091B738809316389093173895
:10094000A0931838B093193881E08093B238209280
:100950001E3830921F381092993810929A3810929F
:10096000BA381092B8381092B938C12CD12C76010F
:10097000412C512C32018091B238823009F084C070
:100980008091B4389091B538A091B638B091B7380D
:1009900080931A3890931B38A0931C38B0931D385D
:1009A0008093163890931738A0931838B09319385D
:1009B00081E08093B2382091993830919A388091B3
:1009C000BC389091BD382838334118F4892B09F090
:1009D00084C020911E3830911F3800E318E356E29E
:1009E000A52E58E3B52ED501F80190E080E04D9199
:1009F0005D916081662321F04217530708F066C0BD
:100A0000ADE9B8E344E1489FF001499FF00D11249E
:100A1000BF01605D774C4D9141114FC0880F991F08
:100A2000FC01EA5DF74C21503109208331838AE0D3
:100A300090E00E943A06F8018081882399F0F50140
:100A400081818F9380818F931F930F9383E692E927
:100A50009F938F930E9424060F900F900F900F90FA
:100A60000F900F900C5E1F4FF2E0AF0EB11C28E309
:100A70000439120701F71092BC381092BD38209249
:100A80001E3830921F38E3CD809116389091173878
:100A9000A0911838B0911938809312389093133878
:100AA000A0931438B093153880931A3890931B385C
:100AB000A0931C38B0931D387ECFFB014193BF013A
:100AC000AD0141505109FA011082A5CF01967496EB
:100AD0008530910509F08BCFAACF809199389091FC
:100AE0009A3880FF02C087E789CD87EF87CD2091B4
:100AF000993830919A388091953890919638281786
:100B0000390708F43FC08091B238882311F18091F1
:100B1000B4389091B538A091B638B091B738809379
:100B20001A3890931B38A0931C38B0931D388093CB
:100B3000163890931738A0931838B093193881E07D
:100B40008093B2381092993810929A3884E090E0ED
:100B5000E9CC8091123890911338A0911438B0915B
:100B6000153880931A3890931B38A0931C38B09393
:100B70001D388093163890931738A0931838B09387
:100B80001938E0CF8091993890919A3880FF03C04E
:100B90001092C40808CD80E831CD20919938309169
:100BA0009A3880919538909196382817390708F02F
:100BB0004ECD8091993890919A3880FF07C09981E5
:100BC000E92FF0E0E65CFD46808118CD992009F41C
:100BD000EACCE92DF0E0E65CFD46808180680ECD30
:100BE000AA1BBB1B51E107C0AA1FBB1FA617B70753
:100BF00010F0A61BB70B881F991F5A95A9F780956F
:100C00009095BC01CD010895EE0FFF1F0590F49162
:100C1000E02D09940E941506A59F900DB49F900D9C
:100C2000A49F800D911D11240895A29FB001B39F30
:100C3000C001A39F700D811D1124911DB29F700DE5
:100C4000811D1124911D0895B0E0A0E0EAE2F6E0D4
:100C50000C94FA08AE014B5F5F4FFA0161917191FC
:100C6000AF018091C0389091C1380E946C06E2E0DB
:100C70000C9413096091C0387091C1380E945C08CF
:100C800008950F931F93CF93DF93E091C038F091B5
:100C9000C1382381EC0110E000E021FD08C00FEF16
:100CA0001FEF14C00995892B11F00FEF1FEF8991E9
:100CB0006091C0387091C138DB011896ED91FC91BC
:100CC0008111F0CF8AE00995892B49F7C801DF919E
:100CD000CF911F910F910895ABE0B0E0E2E7F6E00D
:100CE0000C94EA087C013B018A01FC011682178200
:100CF000838181FFC8C1CE0101965C01F701938118
:100D0000F30193FD859193FF81913F01882309F4BD
:100D100053C1853239F493FD859193FF81913F0151
:100D2000853229F4B70190E00E945C08E7CF912C4E
:100D3000212C312CFFE1F31538F08B3211F190F4B6
:100D4000803209F1833229F137FC3CC020ED280FB5
:100D50002A3050F536FE20C08AE0989E200D1124DE
:100D6000922E06C08D3291F0803371F7689430F87E
:100D7000F30193FD859193FF81913F018111DACFBA
:100D800021C0689431F8689432F8F2CF689433F84F
:100D9000EFCF689434F8ECCFEAE02E9E200D1124BA
:100DA000222E689435F8E4CF8E3229F436FC04C143
:100DB000689436F8DDCF8C3619F4689437F8D8CFBC
:100DC0008836B1F2982F9F7D95549330E0F08336AA
:100DD000A1F18337C1F1833509F063C02801F2E046
:100DE0004F0E511CF801C080D180692D70E036FC97
:100DF00002C06FEF7FEFC6010E9446084C01689465
:100E000037F882010AC00C5F1F4FFFE3F983882483
:100E10008394912C6501E89437F833FE2DC0522C51
:100E20008114910471F5552009F468CFB70180E26F
:100E300090E00E945C085A94F6CFF8018081898383
:100E40000E5F1F4FE4CF2801F2E04F0E511CF80156
:100E5000C080D180692D70E036FC02C06FEF7FEF5B
:100E6000C6010E9451084C018201D5CFB70180E232
:100E700090E00E945C082A942814190409F0B0F745
:100E8000CECFF60137FC859137FE81916F01B70116
:100E900090E00E945C0851105A94F1E08F1A91087A
:100EA000BFCF843619F0893609F077C0F80137FED4
:100EB0006BC060817181828193810C5F1F4FF32D24
:100EC000FF763F2E97FF09C09095809570956195AC
:100ED0007F4F8F4F9F4F689437F82AE030E0A5018D
:100EE0000E948C08C82ECA188C2C432C36FE0CC0CD
:100EF000E89440F8C91440F434FE05C032FC03C045
:100F0000F32DFE7E4F2E892C44FE95C0FE01EC0D84
:100F1000F11D8081803309F087C0242D297E422E67
:100F2000842D8870582E43FC95C040FE8FC09C2CA9
:100F3000821418F42C0C922C981844FE91C0B7011E
:100F400080E390E00E945C0842FE09C088E790E0E0
:100F500041FE02C088E590E0B7010E945C08C91418
:100F600008F48AC0CA94D12C9FEFC91AD90ACA0CB6
:100F7000DB1CF60182916F01B70190E00E945C08D2
:100F8000AC14BD04B1F74FCF60817181072E000C06
:100F9000880B990B0E5F1F4F92CFD32CE894D4F897
:100FA0002AE030E0853739F1232D297FD22E8F3684
:100FB00001F148F48835A9F0F701868197812B96D5
:100FC000E2E10C940309803749F08837A9F7D4FE91
:100FD00002C06894D2F820E130E00DC06894D4F8E3
:100FE000F6CF34FE03C0822F8660D82E20E132E097
:100FF00002C028E030E0F801D7FE0FC060817181A7
:10100000828193810C5F1F4FA5010E948C08C82E1E
:10101000CA183D2CE89437F867CF6081718190E061
:1010200080E00E5F1F4FF0CF42FC02C0839478CF68
:101030008394839475CF842D867809F471CFF6CF8D
:10104000B70180E290E00E945C0883948214C0F3B0
:10105000512C73CF522C5818821408F46ECFF8CF4D
:10106000842D867809F47BCF8BE241FE80E247FC39
:101070008DE2B70190E071CFB70180E390E00E946C
:101080005C089A946CCF8FEF9FEF99CFFC0105908D
:10109000615070400110D8F7809590958E0F9F1F7A
:1010A0000895FC016150704001900110D8F78095BF
:1010B00090958E0F9F1F08950F931F93CF93DF93EB
:1010C000182F092FEB018B8181FD09C01FEF0FEF56
:1010D000812F902FDF91CF911F910F91089582FF63
:1010E00014C02E813F818C819D81281739073CF4E3
:1010F000E881F981CF0101968883998310838E81DD
:101100009F8101968E839F83E3CFE885F985812FA8
:101110000995892BA1F3DACFFA01AA27283051F1DA
:10112000203181F1E8946F936E7F6E5F7F4F8F4F18
:101130009F4FAF4FB1E03ED0B4E03CD0670F781F77
:10114000891F9A1FA11D680F791F8A1F911DA11D5C
:101150006A0F711D811D911DA11D20D009F4689495
:101160003F912AE0269F11243019305D3193DEF63D
:10117000CF010895462F4770405D4193B3E00FD0F3
:10118000C9F7F6CF462F4F70405D4A3318F0495DDE
:1011900031FD4052419302D0A9F7EACFB4E0A695C1
:1011A0009795879577956795BA95C9F700976105E3
:1011B000710508959B01AC010A2E06945795479539
:1011C00037952795BA95C9F7620F731F841F951F2E
:1011D000A01D08952F923F924F925F926F927F923F
:1011E0008F929F92AF92BF92CF92DF92EF92FF9237
:1011F0000F931F93CF93DF93CDB7DEB7CA1BDB0BE3
:10120000CDBFDEBF09942A88398848885F846E8400
:101210007D848C849B84AA84B984C884DF80EE801A
:10122000FD800C811B81AA81B981CE0FD11DCDBF5C
:0A123000DEBFED010895F894FFCF32
:10123A00086B44412311104B000153554343455356
:10124A00530047414D45204F56455200456E74653F
:10125A0072206E616D653A200025732025640A00AC
:10126A00D007D007000000030000000063005B0005
:10127A0000005108231151082311510823110100BC
:04128A00FF01000060
:00000001FF
