:100000000C943C000C9459000C9459000C94590029
:100010000C9459000C9459000C9459000C945900FC
:100020000C9459000C9459000C9459000C945900EC
:100030000C9459000C9402010C9459000C94590032
:100040000C941C010C9499000C9459000C945900C8
:100050000C9459000C9459000C9459000C945900BC
:100060000C9459000C94D8000C9459000C9459002D
:100070000C9459000C94590011241FBECFEFCDBF32
:10008000DFE3DEBF18E3A0E0B8E3E2E9FAE002C094
:1000900005900D92A631B107D9F728E3A6E1B8E3A0
:1000A00001C01D92A333B207E1F70E9436010C9400
:1000B00042050C940000CF93DF93109211381092F8
:1000C00012388091143820912C3830912D38C091FD
:1000D000143850E040E087FD1CC065ED7CED82E304
:1000E00090E00E94030502C035952795CA95E2F776
:1000F0002093360A3093370A8091360A9091370A56
:10010000969587958093380A9093390ADF91CF911D
:10011000089565ED7CED82E390E00E940305DD2704
:10012000C1950CF4D09502C0220F331FCA95E2F797
:10013000DFCF1F920F920FB60F9211248F938091F1
:10014000000880930208843369F198F4813321F127
:1001500050F48C32A9F08E3239F18F910F900FBE8E
:100160000F901F9018958233D9F08333B1F783E055
:1001700014C08C36C9F050F48536C9F38B3669F754
:10018000809114388F5F80931438E7CF823751F015
:10019000873731F0813709F781E080933238DDCF3E
:1001A00082E0FBCF84E0F9CF809114388150EBCF0F
:1001B0001F920F920FB60F9211242F938F939F933C
:1001C000909108042091133829279091303880911C
:1001D00031388927822380933138909592239093E8
:1001E000303820911338892382278093133881E097
:1001F0008093960A9F918F912F910F900FBE0F9031
:100200001F9018951F920F920FB60F9211248F9383
:100210009F9380912E3890912F38019680932E389D
:1002200090932F3881E08093860A9F918F910F9051
:100230000FBE0F901F9018951F920F920FB60F923E
:1002400011248F93EF93FF93E0E0F4E082E0868344
:100250008583E0ECF8E0838180688383FF91EF91F0
:100260008F910F900FBE0F901F901895CF93DF9333
:1002700000D01F92CDB7DEB7F89495E0909321049B
:1002800088E080931404809315048093160480936F
:10029000170483E18093010A1092280A1092290A18
:1002A00081E08093000A8093E3059093410492E0FB
:1002B000909305049093010430E23093C00824E049
:1002C0002093C1088093C2082091C0082160209328
:1002D000C00845E05DE040938C0A50938D0A8093FE
:1002E000850A8093800A1092810A40939C0A509359
:1002F0009D0A8093950A8093900A4CE655E04093BE
:1003000008085093090820E82093050820EC209362
:100310000608809300068EE0809301063093020663
:1003200080E48093080680E38093090690930C068E
:1003300081E180930A0678948FEF8093C4088093BC
:10034000C4081A821B82FF24FA94F1E54F2EF8E0CC
:100350005F2EF3E26F2EF1E17F2E01E010E0A9EABB
:10036000AA2EB12CBCE12B2E3324339482E5882EA7
:100370009924939420911006309111064091120611
:1003800050911306AFEAB0E00E9428052AE0289FAA
:10039000A001299F500D1124CA0186509F4F8093C0
:1003A0002A3890932B38209113382983E0912838EC
:1003B000F0912938E730F10508F070C0EE51FE4F9A
:1003C0000C942205E90170029502A90204045D045F
:1003D00080044091243850912538609126387091DE
:1003E000273880910D3890910E38A0910F38B09138
:1003F0001038481759076A077B0791F400931138A2
:10040000109312381092380A1092390A8FEF8093A5
:10041000233883E090E080932838909329383EC0B9
:1004200010922E3810922F380093283810932938C4
:10043000C0900938D0900A38E0900B38F0900C3812
:10044000D701C601B695A79597958795C0FE08C0B8
:100450002BEA82272CE3922722E0A22722EEB22762
:100460008093093890930A38A0930B38B0930C38D6
:1004700083708093223880912238823019F184F47D
:100480008130C1F04F5F5F4F6F4F7F4F40932438F3
:10049000509325386093263870932738F9806ACFB7
:1004A0008330B1F0843071F7A0922C38B0922D389F
:1004B0008BE605C080922C3890922D388EEB80937D
:1004C0002338E0CF20922C3830922D388BEEF7CFA6
:1004D00083EC91E080932C3890932D388EE3EFCF0E
:1004E0008FEF8093C40880912A3890912B38209107
:1004F0002E3830912F38969587952817390758F060
:1005000000931138109312381092380A1092390A59
:1005100082E090E080CF809111389091123801975D
:1005200009F0BCCF0E945B00B9CF20912E383091EA
:100530002F3880912A3890912B382817390720F0CE
:100540001092283810922938809123388093C4085B
:10055000A5CF809123388093C40880911138909161
:100560001238009709F44AC0019709F4A3C04091DA
:100570002438509125386091263870912738809121
:100580001C3890911D38A0911E38B0911F38481723
:1005900059076A077B0709F081CF609121384091A4
:1005A0002E3850912F3820912A3830912B3881E005
:1005B00090E04217530710F490E080E070E086234B
:1005C0009723892B09F46ACF10922E3810922F3876
:1005D00000931138109312381092380A1092390A89
:1005E00085E090E0809328389093293880910438F2
:1005F000813009F053CF84E090E00DCF8091213815
:10060000811116C020913238F0944981407F4F21EA
:1006100050E081E090E0211102C090E080E0482BA2
:10062000592B452B09F4A3CF81E0809321389FCF2C
:1006300020912E3830912F3880912A3890912B3884
:100640002817390708F493CF8FEF8093233810923F
:10065000323800931138109312381092380A1092E1
:10066000390A4091053850910638609107387091E9
:100670000838DB01CA01B695A7959795879540FF85
:1006800008C02BEA82272CE3922722E0A22722EE41
:10069000B2278093053890930638A0930738B0931B
:1006A0000838837090912038981709F460CF109221
:1006B00004385DCF498140954F21C0901C38D090BF
:1006C0001D38E0901E38F0901F3850913238842F3A
:1006D000807190E021E030E0513011F030E020E016
:1006E000822B932B892B01F180922C3890922D38FC
:1006F0000E945B008091213810922E3810922F3882
:100700008EEB8093233881E0809320388FEFC81AD6
:10071000D80AE80AF80AC0921C38D0921D38E09234
:100720001E38F0921F3823CF50913238842F8072B8
:1007300090E021E030E0523011F030E020E0822BF8
:10074000932B892BC1F020922C3830922D380E94A7
:100750005B008091213810922E3810922F388BEE4A
:100760008093233882E0809320389FEFC91AD90AFA
:10077000E90AF90AD0CF50913238842F807490E082
:1007800021E030E0533011F030E020E0822B932B59
:10079000892B99F083EC91E080932C3890932D383D
:1007A0000E945B008091213810922E3810922F38D1
:1007B0008EE38093233883E0D6CF2091323840787F
:1007C00050E081E090E0243011F090E080E0482B90
:1007D000592B452B09F4CBCEA0922C38B0922D3852
:1007E0000E945B008091213810922E3810922F3891
:1007F0008BE68093233884E0809320382FEFC21A51
:10080000D20AE20AF20A87CF8091040885FFFCCF62
:1008100083E78093020820912E3830912F38809101
:100820002A3890912B3828173907E0F110922E388A
:1008300010922F3810922838109229384092093897
:1008400050920A3860920B3870920C3840920538FA
:1008500050920638609207387092083810921C380F
:1008600010921D3810921E3810921F3810922438A2
:1008700010922538109226381092273880910D3822
:1008800090910E38A0910F38B09110380196A11DAB
:10089000B11D80930D3890930E38A0930F38B0930C
:1008A0001038FCCD80912E3890912F3880FF03C0F6
:1008B0001092C408F3CD80E849CE8091040885FFEA
:1008C000FCCF86E68093020820912E3830912F3895
:1008D00080912A3890912B382817390738F01092D8
:1008E0002E3810922F3886E090E095CD80912E38EA
:1008F00090912F3880FF02C081E028CE81E826CE7B
:100900009A81911149C060910D3870910E38809193
:100910000F389091103824E630E040E050E00E941B
:10092000E10460930D3870930E3880930F389093E4
:10093000103860910D3870910E3880910F38909179
:1009400010382AE030E040E050E00E94E1046A8381
:1009500080910D3890910E38A0910F38B0911038D9
:100960000B97A105B10508F499CD80910D389091B0
:100970000E38A0910F38B09110380A97A109B1092B
:1009800080930D3890930E38A0930F38B0931038A1
:100990002B812F5F2B83DCCF80912E3890912F38C5
:1009A00080FF07C08A81E82FF0E0E857F547808193
:1009B000CDCD9B81E92FF0E0E857F5478081806835
:1009C000C5CDA1E21A2EAA1BBB1BFD010DC0AA1F9B
:1009D000BB1FEE1FFF1FA217B307E407F50720F0A8
:1009E000A21BB30BE40BF50B661F771F881F991F23
:1009F0001A9469F760957095809590959B01AC016C
:100A0000BD01CF010895052E97FB1EF400940E94AE
:100A10001A0557FD07D00E94E10407FC03D04EF4ED
:100A20000C941A0550954095309521953F4F4F4FA6
:100A30005F4F089590958095709561957F4F8F4F8A
:100A40009F4F0895EE0FFF1F0590F491E02D09943C
:100A50000E943305A59F900DB49F900DA49F800D1B
:100A6000911D11240895A29FB001B39FC001A39FBF
:100A7000700D811D1124911DB29F700D811D1124D7
:080A8000911D0895F894FFCFC9
:0A0A8800086B44412311104B0001DC
:100A9200D007D0070151082311510823110100008A
:060AA200000100FFFC0052
:00000001FF
