:100000000C943C000C9459000C9459000C94590029
:100010000C9459000C9459000C9459000C945900FC
:100020000C9459000C9459000C9459000C945900EC
:100030000C9459000C94A7000C9459000C9459008E
:100040000C94E6000C94FB000C9459000C9459009D
:100050000C9459000C9459000C9459000C945900BC
:100060000C9459000C9490000C9459000C94590075
:100070000C9459000C94590011241FBECFEFCDBF32
:10008000DFE3DEBF18E3A0E0B8E3E8E8F3E002C096
:1000900005900D92AA30B107D9F728E3AAE0B8E39A
:1000A00001C01D92A331B207E1F70E9423010C9415
:1000B000C2010C94000080910E3890910F3881306D
:1000C0009105F9F080F08230910501F1039719F163
:1000D0008091360A9091370A969587958093380AD1
:1000E0009093390A089520910D3881E591E002C07E
:1000F000959587952A95E2F78093360A9093370A6B
:10010000E7CF20910D388CE191E0F1CF20910D38AF
:1001100082EC91E0ECCF20910D3888EA90E0E7CFB7
:100120001F920F920FB60F9211248F9380910804A3
:1001300080910838809108388093083881E0809356
:10014000960A8F910F900FBE0F901F9018951F92D7
:100150000F920FB60F9211248F939F9380911138B5
:1001600090911238019680931138909312388091B3
:100170001038882351F08091063890910738809389
:100180000438909305381092103880910E38909171
:100190000F3881309105A1F078F08230910591F00F
:1001A000039791F081E08093860A9F918F910F9041
:1001B0000FBE0F901F9018958EE38093C408F2CF66
:1001C0008BE6FBCF8EEBF9CF8BEEF7CF1F920F9222
:1001D0000FB60F9211248F93EF93FF93E0E0F4E0BA
:1001E00082E086838583FF91EF918F910F900FBE00
:1001F0000F901F9018951F920F920FB60F92112417
:100200008F93809100088C3261F08E32A1F08B3692
:1002100041F08C3681F08F910F900FBE0F901F90A0
:10022000189580910D388430B4F780910D388F5F28
:1002300080930D38F0CF80910D388D3F64F380911D
:100240000D388150F5CFF89495E09093210488E023
:1002500080931404809315048093160480931704EC
:1002600083E18093010A27E93DE12093260A309338
:10027000270A1092280A1092290A81E08093000A26
:100280008093E3059093410492E09093050490934A
:10029000010430E23093C00824E02093C108809329
:1002A000C2082091C00821602093C00845E05DE0AD
:1002B00040938C0A50938D0A8093850A8093800A1C
:1002C0001092810A44E154E340939C0A50939D0AA2
:1002D0008093950A8093900A4CE655E04093080875
:1002E0005093090820E82093050820EC2093060885
:1002F00080930006109201063093020680E48093FA
:10030000080680E38093090690930C0681E18093B0
:100310000A0678948FEF8093C4080E945B00C3E0C4
:10032000D0E001E010E082E0E82EF12C809108049A
:10033000809308389091083880910838892B8095EF
:10034000909108389091083884FF07C010920E38B9
:1003500010920F380E945B00E9CF85FF05C0E09244
:100360000E38F0920F38F6CF86FF05C000930E3896
:1003700010930F38EFCF87FFEDCFC0930E38D09397
:080380000F38E8CFF894FFCF1D
:0A0388005108231101000100FF00DD
:00000001FF
