:100000000C943C000C9459000C9459000C94590029
:100010000C9459000C9459000C9459000C945900FC
:100020000C9459000C9459000C9459000C945900EC
:100030000C9459000C9422010C9459000C94590012
:100040000C947B010C948D000C9459000C94590075
:100050000C9459000C9459000C9459000C945900BC
:100060000C9459000C94F8000C9459000C9459000D
:100070000C9459000C94590011241FBECFEFCDBF32
:10008000DFE3DEBF18E3A0E0B8E3ECE1FEE002C08E
:1000900005900D92A031B107D9F728E3A0E1B8E3AC
:1000A00001C01D92A732B207E1F70E9495010C949E
:1000B0000C070C9400009091040895FFFCCF8093EE
:1000C00002080895FF920F931F93CF93DF938C0143
:1000D000EB01F42E688179816F5F7F4FFC01808195
:1000E00091810E94F004F8018083918328813981F5
:1000F000820F931FFC01F08288819981AA81BB81C4
:100100000196A11DB11D88839983AA83BB83DF91CA
:10011000CF911F910F91FF9008951F920F920FB6EC
:100120000F9211242F933F938F939F9380910008F8
:1001300080930208209121383091223823303105F4
:1001400009F042C08933E9F1E0F4813381F158F4D8
:100150008E3209F440C0803309F447C08C3241F438
:1001600085E090E026C08333A9F0F0F0843331F1CC
:100170009F918F913F912F910F900FBE0F901F90E5
:1001800018958F36F1F048F48B3651F38C3619F10F
:10019000853671F783E090E00CC0813741F028F19B
:1001A000823761F0873721F782E090E002C081E07A
:1001B00090E080931F3890932038DACF84E090E06D
:1001C000F8CF88E090E0F5CF803379F038F48C32C6
:1001D00039F28E3269F686E090E0EBCF8C36D9F3B7
:1001E000803719F08B3621F6BBCF87E090E0E1CF66
:1001F0001F920F920FB60F9211242F938F939F93FC
:100200009091080420910938292790911D388091F8
:100210001E388927822380931E38909592239093CD
:100220001D3820910938892382278093093881E07D
:100230008093960A9F918F912F910F900FBE0F90F0
:100240001F9018951F920F920FB60F9211248F9343
:100250009F9380911B3890911C38019680931B3896
:1002600090931C388091213890912238019721F485
:100270008FEF8093C4081EC080912138909122385E
:10028000059751F480911B3890911C3880FF02C073
:1002900081E0EFCF81E8EDCF809121389091223835
:1002A0000497A1F480911B3890911C3880FF0CC0FA
:1002B0001092C40881E08093860A9F918F910F90DD
:1002C0000FBE0F901F90189580E8D3CF80911938FA
:1002D00090911A388130910551F038F082309105B3
:1002E00041F0039739F78BE6C4CF8EEBC2CF8BEE8C
:1002F000C0CF8EE3BECF1F920F920FB60F92112484
:100300008F93EF93FF93E0E0F4E082E086838583B0
:10031000E0ECF8E0838180688383FF91EF918F9117
:100320000F900FBE0F901F901895CF93DF93CDB70E
:10033000DEB72D97CDBFDEBFF89495E090932104F2
:1003400088E08093140480931504809316048093AE
:10035000170483E18093010A81E08093000A80936F
:10036000E3059093410492E0909305049093010477
:1003700030E23093C00824E02093C1088093C20883
:100380002091C00821602093C00845E05DE04093C3
:100390008C0A50938D0A8093850A8093800A10926C
:1003A000810A44E154E340939C0A50939D0A809350
:1003B000950A8093900A4CE655E0409308085093C4
:1003C000090820E82093050820EC20930608809374
:1003D00000068EE0809301063093020680E480934D
:1003E000080680E38093090690930C0681E18093D0
:1003F0000A0678948FEF8093C40819821A821B82B0
:100400001C821D821E821F821886EFEFF4E0AF2E41
:10041000B12CA3E0EA2EF12CB2E0CB2ED12C01E0DE
:1004200010E085E8282E86E2382E9EED892E9CE18C
:10043000992E20911006309111064091120650918C
:100440001306AFEAB0E00E94D6042AE0289FA0017C
:10045000299F500D1124CA0186509F4F8093173851
:1004600090931838209109382D8720952E2380915C
:100470001F38909120388630910509F454C0D8F483
:10048000059709F442C024FF61C000931F38109300
:10049000203880912138909122388230910509F4DA
:1004A0007DC108F068C0009709F47BC0019709F48A
:1004B00060C1ED85BECF87309105E9F1089719F746
:1004C00040910038509101386091023870910338A2
:1004D000DB01CA01B695A7959795879540FF08C09F
:1004E0003BEA83273CE3932732E0A32732EEB3278E
:1004F000837090E0B0E0A0E08093003890930138E2
:10050000A0930238B093033809C080910838843032
:100510002CF4809108388F5F8093083810921F3830
:1005200010922038B0CF809108388D3FBCF3809175
:1005300008388150F1CF1092083810920438109288
:1005400005381092063810920738E8CF25FF05C00D
:10055000C0921F38D09220389CCF26FF05C0E09271
:100560001F38F092203895CF27FF93CFA0921F38E5
:10057000B09220388ECF8430910509F4EFC108F491
:1005800046C1059709F095CF19821A821B821C82F9
:100590001D821E821F82188681E090E0A0E0B0E0FC
:1005A000FCC110921B3810921C38409100385091B9
:1005B00001386091023870910338DB01CA01B695A9
:1005C000A7959795879540FF08C02BEA82272CE3D3
:1005D000922722E0A22722EEB22780930038909340
:1005E0000138A0930238B093033883708093163893
:1005F00080911638813009F442C014F5882371F1D6
:100600008091083887FD76C08091193890911A380A
:100610008130910509F451C008F445C0823091053C
:1006200009F456C0039709F457C08091360A909197
:10063000370A969587958093380A9093390A39CF6F
:10064000823039F18330E1F6E0921938F0921A38AD
:10065000009321381093223844E009C010921938D1
:1006600010921A38009321381093223841E0BE01CD
:100670006F5F7F4FCE0109960E946200C1CF009349
:10068000193810931A38009321381093223842E019
:10069000EECFC0921938D0921A38009321381093B7
:1006A000223843E0E4CF80910838D10102C0B595EB
:1006B000A7958A95E2F7CD0118C08091083829EDF9
:1006C0003DE202C0359527958A95E2F7C9010DC034
:1006D00080910838D401EACF209108388BE09DE45E
:1006E00002C0959587952A95E2F78093360A9093F4
:1006F000370A9BCF8091193890911A388130910533
:1007000011F1A0F08230910561F1039709F08DCFCE
:1007100020910838332721950CF430958BE09DE427
:1007200002C0880F991F2A95E2F7DFCF8091083821
:10073000992781950CF49095910102C0220F331FE7
:100740008A95E2F7C3CF80910838992781950CF4F8
:100750009095A9EDBDE202C0AA0FBB1F8A95E2F7F2
:10076000AACF80910838992781950CF4909594012F
:10077000E4CF809117389091183820911B38309130
:100780001C38969587952817390740F01092380A3B
:100790001092390AC0922138D092223820911B3809
:1007A00030911C3880911738909118384091043856
:1007B00050910538609106387091073849805A8009
:1007C0006B807C80441655066606770679F42817F8
:1007D000390760F01092380A1092390A8FEF80932F
:1007E000C408E0922138F092223863CE20911B3861
:1007F00030911C3880911738909118382817390794
:1008000008F457CE109221381092223852CE80919F
:100810001F38909120388230910509F463C070F53B
:10082000019709F447C08D819E81AF81B885892BDE
:100830008A2B8B2B19F482E30E945B0049805A803B
:100840006B807C808D819E81AF81B885481659066A
:100850006A067B0609F02DCEA985BA85EB85FC8555
:1008600040E050E0BA01441655066606770609F0E6
:1008700065C0A0922138B09222381BCE83309105FA
:1008800009F446C0049779F6E0921938F0921A38C4
:1008900010921F381092203810921B3810921C387A
:1008A00044E0BE016B5F7F4FCE010B960E94620059
:1008B00084E615C01092193810921A3810921F3819
:1008C0001092203810921B3810921C3841E0BE0163
:1008D0006B5F7F4FCE010B960E94620081E60E9403
:1008E0005B00A1CF0093193810931A3810921F386B
:1008F0001092203810921B3810921C3842E0BE0132
:100900006B5F7F4FCE010B960E94620082E6E7CFBD
:10091000C0921938D0921A3810921F38109220388D
:1009200010921B3810921C3843E0BE016B5F7F4F62
:10093000CE010B960E94620083E6D1CF9D918191FA
:100940004F5F5F4F6F4F7F4F981709F48CCFA5E033
:10095000B0E0A0932138B0932238ABCD20911B3862
:1009600030911C3880911738909118382817390722
:1009700008F49FCD19821A821B821C821D821E825E
:100980001F8218868091043890910538A09106380E
:10099000B09107380196A11DB11D80930438909342
:1009A0000538A0930638B093073883CD0E94E10440
:1009B000A59F900DB49F900DA49F800D911D1124B3
:1009C0000895A29FB001B39FC001A39F700D811D28
:1009D0001124911DB29F700D811D1124911D089548
:1009E000B0E0A0E0E6EFF4E00C94DD068C010097A7
:1009F00051F4CB010E94B6058C01C801CDB7DEB71A
:100A0000E0E10C94F606FC01E60FF71F9C01225072
:100A10003109E217F30708F49DC0D901CD91DC91AB
:100A20001197C617D70798F0C530D10530F3CE011E
:100A300004978617970708F3C61BD70B2297C19315
:100A4000D1936D937C93CF010E945206D6CF5B0168
:100A5000AC1ABD0A4C018C0E9D1EA0912538B09198
:100A60002638512C412CF12CE12C109731F5809136
:100A70002338909124388815990509F05CC04616F2
:100A8000570608F058C080910A3890910B380097AB
:100A900041F48DB79EB740910E3850910F38841BAA
:100AA000950BE817F90708F055C0E0932338F09349
:100AB0002438F90160837183A0CF8D919C911197A7
:100AC00012966C90129713967C901397A815B905FF
:100AD00059F56C0142E0C40ED11CCA14DB0420F1AC
:100AE000AC014A195B09DA011296159780F062820F
:100AF000738240835183D9016D937C93E114F10497
:100B000071F0D7011296ED93FC93139776CF22964E
:100B10008C0F9D1FF90180839183F301EFCFE09348
:100B20002538F093263869CF4816590608F42C0169
:100B30007D01D3019ACFCB010E94B6057C010097BD
:100B400049F0AE01B8010E94AD05C8010E945206ED
:100B5000870153CF10E000E050CFFB01DC0102C061
:100B600001900D9241505040D8F708950F931F9374
:100B7000CF93DF938230910510F482E090E0E09112
:100B80002538F091263830E020E0B0E0A0E0309742
:100B900099F42115310509F44AC0281B390B24307A
:100BA0003105D8F58A819B816115710589F1FB01B9
:100BB00082839383FE0111C04081518102811381A0
:100BC00048175907E0F04817590799F4109761F052
:100BD00012960C93129713961C933296CF01DF91C5
:100BE000CF911F910F9108950093253810932638C7
:100BF000F4CF2115310551F04217530738F0A90100
:100C0000DB019A01BD01DF01F801C1CFEF01F9CF8E
:100C10008093253890932638CDCFFE01E20FF31F45
:100C2000819391932250310928833983D7CF209122
:100C3000233830912438232B41F420910C38309103
:100C40000D38209323383093243820910A3830917E
:100C50000B382115310541F42DB73EB740910E38C0
:100C600050910F38241B350BE0912338F091243834
:100C7000E217F307A0F42E1B3F0B2817390778F073
:100C8000AC014E5F5F4F2417350748F04E0F5F1FD2
:100C90004093233850932438819391939FCFF0E071
:100CA000E0E09CCFCF93DF930097E9F0FC0132970F
:100CB00012821382A0912538B0912638ED0130E0E0
:100CC00020E01097A1F420813181820F931F2091A1
:100CD0002338309124382817390709F061C0E09390
:100CE0002338F0932438DF91CF910895EA01CE178D
:100CF000DF07E8F54A815B819E0141155105B1F797
:100D0000E901EA83FB8349915991C40FD51FEC1780
:100D1000FD0761F4808191810296840F951FE9019E
:100D200088839983828193818A839B83F0E0E0E0CA
:100D300012968D919C9113970097B9F52D913C9146
:100D40001197CD010296820F931F20912338309185
:100D500024382817390739F6309751F5109225387D
:100D600010922638A0932338B0932438BCCFC28386
:100D7000D38340815181840F951FC817D90761F42F
:100D80004E5F5F4F88819981480F591F408351837F
:100D90008A819B81828393832115310509F0B0CF2D
:100DA000E0932538F09326389ECFFD01DC01C0CFBB
:100DB00012821382D7CF2F923F924F925F926F92FF
:100DC0007F928F929F92AF92BF92CF92DF92EF92DB
:100DD000FF920F931F93CF93DF93CDB7DEB7CA1B5C
:100DE000DB0BCDBFDEBF09942A88398848885F8431
:100DF0006E847D848C849B84AA84B984C884DF80BB
:100E0000EE80FD800C811B81AA81B981CE0FD11D9E
:0C0E1000CDBFDEBFED010895F894FFCFC8
:100E1C005108231102000000FCFF0000273880005D
:00000001FF
