:100000000C943C000C9459000C9459000C94590029
:100010000C9459000C9459000C9459000C945900FC
:100020000C9459000C9459000C9459000C945900EC
:100030000C9459000C9416020C9459000C9459001D
:100040000C9430020C94D1000C9459000C9459007B
:100050000C9459000C9459000C9459000C945900BC
:100060000C9459000C94EC010C9459000C94590018
:100070000C9459000C94590011241FBECFEFCDBF32
:10008000DFE3DEBF28E3A0E2B8E301C01D92A234A3
:10009000B207E1F718E3A0E0B8E3EBE0F2E102C059
:1000A00005900D92A032B107D9F70E944A020C9434
:1000B000DF080C9400008091040887FFFCCF80913A
:1000C000000890E008959091040895FFFCCF80937C
:1000D0000208082E000C990B0895FC014081518103
:1000E00062817381DB01CA01B695A79597958795C3
:1000F00040FF08C02BEA82272CE3922722E0A227A8
:1001000022EEB22780839183A283B3838370089504
:1001100081E090E080931538909316381092380A59
:100120001092390A0895CF93DF93109215381092E8
:100130001638809138382091273830912838C0916E
:10014000383850E040E087FF20C065ED7CED82E369
:1001500090E00E94A805DD27C1950CF4D09502C05F
:10016000220F331FCA95E2F72093360A3093370ADD
:100170008091360A9091370A969587958093380A30
:100180009093390ADF91CF91089565ED7CED82E37C
:1001900090E00E94A80502C035952795CA95E2F720
:1001A000E3CF1F920F920FB60F9211242F933F931C
:1001B0004F935F936F937F938F939F93AF93BF936F
:1001C000EF93FF93809100088093020820913A38C2
:1001D00030913B3823303105F9F02730310509F4EF
:1001E000ECC08091153890911638892B21F40E942B
:1001F00088000E949300FF91EF91BF91AF919F9172
:100200008F917F916F915F914F913F912F910F90BF
:100210000FBE0F901F901895893309F4C7C070F571
:10022000813309F442C010F58E3209F442C08033A4
:1002300009F447C08C32A9F68091383883302CF409
:10024000809138388F5F809338388091360A90914A
:10025000370A9F938F938CEC91E99F938F930E9421
:10026000EF050F900F900F900F90BBCF833389F065
:10027000D0F0843309F0B5CF84E018C08F3609F48C
:1002800095C048F48B36C1F28C3699F0853609F06A
:10029000A8CF83E00BC0813741F098F0823761F33B
:1002A000873709F09ECF82E001C081E08093393822
:1002B00098CF809138388F3F44F280913838815000
:1002C000C2CF10923738809137388830E8F0F0E0AC
:1002D000E0E090E080E024E0880F991F2A95E1F7A4
:1002E0004081242F042E000C330B50ED540F5A3054
:1002F000C0F420533109822B932B3196E830F1055D
:1003000051F7B0E0A0E029C08091040887FFFCCF3E
:100310008091000880B9809137388F5F809337389B
:10032000D2CF5FEB540F563018F427533109E3CF87
:100330004156463018F427553109DDCF3F932F93AE
:100340008FEC91E99F938F930E94EF050F900F9090
:100350000F900F9080E090E0DC0180931B38909329
:100360001C38A0931D38B0931E3880911B38909193
:100370001C38A0911D38B0911E3880931738909387
:100380001838A0931938B0931A3810923338109255
:100390003438109235381092363810922F38109227
:1003A000303810923138109232381BCF8BE198E3FD
:1003B0000E946D0080932E3814CF8A3031F08091E6
:1003C0002D388F5F80932D380CCF88E090E080939C
:1003D0003A3890933B3805CF1F920F920FB60F9289
:1003E00011242F938F939F93909108042091143898
:1003F000292790912B3880912C388927822380934C
:100400002C389095922390932B382091143889237F
:1004100082278093143881E08093960A9F918F9170
:100420002F910F900FBE0F901F9018951F920F9253
:100430000FB60F9211248F939F938091293890913A
:100440002A3801968093293890932A3881E0809346
:10045000860A9F918F910F900FBE0F901F90189555
:100460001F920F920FB60F9211248F93EF93FF9369
:10047000E0E0F4E082E086838583E0ECF8E08381CD
:1004800080688383FF91EF918F910F900FBE0F9043
:100490001F901895F89495E09093210488E080933C
:1004A000140480931504809316048093170483E149
:1004B0008093010A1092280A1092290A81E0809301
:1004C000000A8093E3059093410492E09093050421
:1004D0009093010430E23093C00824E02093C108D7
:1004E0008093C2082091C00821602093C00845E095
:1004F0005DE040938C0A50938D0A8093850A809327
:10050000800A1092810A40939C0A50939D0A80931E
:10051000950A8093900A4CE655E040930808509362
:10052000090820E82093050820EC20930608809312
:1005300000068FE0809301063093020680E48093EA
:10054000080680E38093090690930C0681E180936E
:100550000A06789484E098E380933E3890933F387D
:1005600080933C3890933D388FEF8093C408612C82
:10057000D0E0CFEFFAE0EF2EF12C06EE11E9A5E086
:100580002A2E312C44244394512C89EAC82ED12C94
:1005900093ECA92EBB24B3942CE1822E992493943E
:1005A0004091100650911106609112067091130649
:1005B000ECE07695679557954795EA95D1F725E74D
:1005C000249FC001259F900D112486509F4F80933A
:1005D00025389093263870901438E0913A38F0918D
:1005E0003B38E930F10508F054C0E750FD4F0C945A
:1005F000C70502036B0389039D03B204F2042805B7
:1006000071058405809112389091133840912F38EC
:10061000509130386091313870913238B0E0A0E0BC
:1006200084179507A607B70761F40E9488008FEF2B
:100630008093243883E090E080933A3890933B385D
:1006400028C01092293810922A3840923A38509295
:100650003B388BE198E30E946D0080932E388091A7
:100660002E38823061F1BCF48130F9F080912F385E
:1006700090913038A0913138B09132380196A11D57
:10068000B11D80932F3890933038A0933138B093B8
:100690003238C72D85CF8330C1F0843039F7C0920E
:1006A0002738D09228388BE607C082E591E0809306
:1006B0002738909328388EEB80932438D7CF8092B8
:1006C0002738909228388BEEF7CFA0922738B09237
:1006D00028388EE3F1CF8FEF8093C40880912538BE
:1006E000909126382091293830912A38969587950F
:1006F0002817390728F00E94880082E090E09CCFFC
:100700008091153890911638019719F60E94930040
:10071000C0CF2091293830912A3880912538909186
:1007200026382817390720F010923A3810923B38B3
:10073000809124388093C408ACCF80912438809372
:10074000C40880911538909116380097F1F10197FF
:1007500009F09FCF872D8095C823809139382C2FA1
:10076000207130E041E050E0813011F050E040E095
:10077000242B352B232B09F494C082E591E0809340
:100780002738909328380E949300109223381092B3
:10079000293810922A388EEB8093243881E0809398
:1007A00022388091333890913438A0913538B09107
:1007B00036380196A11DB11D80933338909334389B
:1007C000A0933538B093363864CF409123382091C8
:1007D000293830912A388091253890912638411156
:1007E00011C02817390770F08091293890912A3864
:1007F0009F938F931F930F930E94EF050F900F907D
:100800000F900F908091233881110AC0C095872DD9
:10081000807FC82309F43DCF81E08093233839CF0E
:100820002091293830912A388091253890912638A6
:100830002817390708F42DCF8FEF809324381092B2
:1008400039381092293810922A380E9488008091F5
:1008500022381F928F931F930F930E94EF058AEE09
:1008600091E99F938F930E94EF0587E198E30E949F
:100870006D000F900F900F900F900F900F90909130
:100880002238891305C08FEE91E90E94050601CF39
:1008900086EF91E90E94050620923A3830923B3863
:1008A000F8CE809139382C2F207230E041E050E0B2
:1008B000823011F050E040E0242B352B232B89F0BF
:1008C00080922738909228380E9493001092233803
:1008D0001092293810922A388BEE8093243882E0C7
:1008E0005ECF809139382C2F207430E041E050E009
:1008F000833011F050E040E0242B352B232B89F07E
:10090000A0922738B09228380E9493001092233882
:100910001092293810922A388EE38093243883E08D
:100920003ECF40913938C0788C2F90E021E030E004
:10093000443011F030E020E0822B932B892B09F416
:10094000A8CEC0922738D09228380E9493001092E7
:1009500023381092293810922A388BE68093243855
:1009600084E01DCF8DEF91E99F938F930E94EF0557
:100970002091293830912A38809125389091263855
:100980000F900F902817390710F110922938109204
:100990002A38109233381092343810923538109229
:1009A000363810922F381092303810923138109219
:1009B0003238809112389091133801968093123812
:1009C0009093133810923A3810923B3862CE80914F
:1009D000293890912A3880FF03C01092C40859CE5C
:1009E00080E8A8CE84E092E99F938F930E94EF0560
:1009F0002091293830912A388091253890912638D5
:100A00000F900F9028173907C8F0109229381092CC
:100A10002A3880911B3890911C38A0911D38B091D4
:100A20001E389F938F930E94EF0586E090E080939D
:100A30003A3890933B380F900F902BCE8091293805
:100A400090912A3880FF02C087E774CE87EF72CE7C
:100A5000809112389091133864E670E00E949405FA
:100A600080931238909313388091123890911338F4
:100A7000B7010E949405682E2091123830911338E6
:100A80002B303105D8F42091293830912A3820FFB5
:100A900021C08E539E46FC0180818093C408209122
:100AA000293830912A388091253890912638281796
:100AB000390708F4EECD87E090E0BECD20911238E2
:100AC000309113382A50310920931238309313385B
:100AD000DF5FD2CFED2FF0E0EE53FE4680818068DD
:100AE000DCCF8091293890912A3880FF06C0E62D0E
:100AF000F0E0EE53FE4680811DCEED2FF0E0EE5388
:100B0000FE468081806816CE80911238909113380D
:100B1000805D9091040895FFFCCF80930208E092DD
:100B20003A38F0923B38B5CDAA1BBB1B51E107C048
:100B3000AA1FBB1FA617B70710F0A61BB70B881F6D
:100B4000991F5A95A9F780959095BC01CD010895FC
:100B5000052E97FB1EF400940E94BF0557FD07D099
:100B60000E94CD0507FC03D04EF40C94BF055095B0
:100B70004095309521953F4F4F4F5F4F0895909589
:100B80008095709561957F4F8F4F9F4F0895EE0F21
:100B9000FF1F0590F491E02D0994A1E21A2EAA1BE3
:100BA000BB1BFD010DC0AA1FBB1FEE1FFF1FA2171D
:100BB000B307E407F50720F0A21BB30BE40BF50B1A
:100BC000661F771F881F991F1A9469F760957095A3
:100BD000809590959B01AC01BD01CF010895B0E0D7
:100BE000A0E0E5EFF5E00C94BE08AE014B5F5F4F6F
:100BF000FA0161917191AF0180913E3890913F3837
:100C00000E943006E2E00C94D7080F931F93CF9315
:100C1000DF93E0913E38F0913F382381EC0110E002
:100C200000E021FD08C00FEF1FEF14C00995892BCC
:100C300011F00FEF1FEF899160913E3870913F38AE
:100C4000DB011896ED91FC918111F0CF8AE00995B6
:100C5000892B49F7C801DF91CF911F910F9108951A
:100C6000ABE0B0E0E6E3F6E00C94AE087C013B01BB
:100C70008A01FC0116821782838181FFC8C1CE01DF
:100C800001965C01F7019381F30193FD859193FF38
:100C900081913F01882309F453C1853239F493FDD2
:100CA000859193FF81913F01853229F4B70190E04E
:100CB0000E942008E7CF912C212C312CFFE1F31565
:100CC00038F08B3211F190F4803209F1833229F13E
:100CD00037FC3CC020ED280F2A3050F536FE20C0EE
:100CE0008AE0989E200D1124922E06C08D3291F03C
:100CF000803371F7689430F8F30193FD859193FF89
:100D000081913F018111DACF21C0689431F8689454
:100D100032F8F2CF689433F8EFCF689434F8ECCF20
:100D2000EAE02E9E200D1124222E689435F8E4CF9F
:100D30008E3229F436FC04C1689436F8DDCF8C3647
:100D400019F4689437F8D8CF8836B1F2982F9F7D80
:100D500095549330E0F08336A1F18337C1F18335A8
:100D600009F063C02801F2E04F0E511CF801C08069
:100D7000D180692D70E036FC02C06FEF7FEFC601B5
:100D80000E940A084C01689437F882010AC00C5F7F
:100D90001F4FFFE3F98388248394912C6501E89425
:100DA00037F833FE2DC0522C8114910471F5552073
:100DB00009F468CFB70180E290E00E9420085A94BD
:100DC000F6CFF801808189830E5F1F4FE4CF2801A1
:100DD000F2E04F0E511CF801C080D180692D70E007
:100DE00036FC02C06FEF7FEFC6010E9415084C0170
:100DF0008201D5CFB70180E290E00E9420082A94BA
:100E00002814190409F0B0F7CECFF60137FC85910C
:100E100037FE81916F01B70190E00E9420085110C8
:100E20005A94F1E08F1A9108BFCF843619F08936B1
:100E300009F077C0F80137FE6BC060817181828153
:100E400093810C5F1F4FF32DFF763F2E97FF09C054
:100E500090958095709561957F4F8F4F9F4F6894C7
:100E600037F82AE030E0A5010E945008C82ECA18C1
:100E70008C2C432C36FE0CC0E89440F8C91440F486
:100E800034FE05C032FC03C0F32DFE7E4F2E892CAC
:100E900044FE95C0FE01EC0DF11D8081803309F008
:100EA00087C0242D297E422E842D8870582E43FC25
:100EB00095C040FE8FC09C2C821418F42C0C922CF0
:100EC000981844FE91C0B70180E390E00E9420088A
:100ED00042FE09C088E790E041FE02C088E590E04C
:100EE000B7010E942008C91408F48AC0CA94D12C02
:100EF0009FEFC91AD90ACA0CDB1CF60182916F0157
:100F0000B70190E00E942008AC14BD04B1F74FCFA8
:100F100060817181072E000C880B990B0E5F1F4FAB
:100F200092CFD32CE894D4F82AE030E0853739F119
:100F3000232D297FD22E8F3601F148F48835A9F070
:100F4000F701868197812B96E2E10C94C7088037E0
:100F500049F08837A9F7D4FE02C06894D2F820E19E
:100F600030E00DC06894D4F8F6CF34FE03C0822F71
:100F70008660D82E20E132E002C028E030E0F8019F
:100F8000D7FE0FC060817181828193810C5F1F4FFA
:100F9000A5010E945008C82ECA183D2CE89437F8C5
:100FA00067CF6081718190E080E00E5F1F4FF0CFCE
:100FB00042FC02C0839478CF8394839475CF842DB0
:100FC000867809F471CFF6CFB70180E290E00E94F5
:100FD000200883948214C0F3512C73CF522C5818DC
:100FE000821408F46ECFF8CF842D867809F47BCF75
:100FF0008BE241FE80E247FC8DE2B70190E071CFC9
:10100000B70180E390E00E9420089A946CCF8FEFA4
:101010009FEF99CFFC010590615070400110D8F707
:10102000809590958E0F9F1F0895FC016150704030
:1010300001900110D8F7809590958E0F9F1F08950D
:101040000F931F93CF93DF93182F092FEB018B8101
:1010500081FD09C01FEF0FEF812F902FDF91CF91FE
:101060001F910F91089582FF14C02E813F818C81C2
:101070009D81281739073CF4E881F981CF01019659
:101080008883998310838E819F8101968E839F83AD
:10109000E3CFE885F985812F0995892BA1F3DACF74
:1010A000FA01AA27283051F1203181F1E8946F9399
:1010B0006E7F6E5F7F4F8F4F9F4FAF4FB1E03ED03F
:1010C000B4E03CD0670F781F891F9A1FA11D680FDD
:1010D000791F8A1F911DA11D6A0F711D811D911D10
:1010E000A11D20D009F468943F912AE0269F112485
:1010F0003019305D3193DEF6CF010895462F4770E9
:10110000405D4193B3E00FD0C9F7F6CF462F4F7043
:10111000405D4A3318F0495D31FD4052419302D0A1
:10112000A9F7EACFB4E0A695979587957795679547
:10113000BA95C9F700976105710508959B01AC0147
:101140000A2E06945795479537952795BA95C9F76E
:10115000620F731F841F951FA01D08952F923F9249
:101160004F925F926F927F928F929F92AF92BF92B7
:10117000CF92DF92EF92FF920F931F93CF93DF9363
:10118000CDB7DEB7CA1BDB0BCDBFDEBF09942A8803
:10119000398848885F846E847D848C849B84AA848B
:1011A000B984C884DF80EE80FD800C811B81AA8118
:1011B000B981CE0FD11DCDBFDEBFED010895F894EA
:0211C000FFCF5F
:1011C200086B44412311104B0001256400496E76DF
:1011D200616C6964206368617261637465723A204C
:1011E20025630A0025640A004655434B005061738B
:1011F200736564004661696C656400706173736550
:0912020064006661696C6564001A
:10120B00D007D007000000030000000063005B0064
:10121B0000000100FF0100510823115108231100A8
:00000001FF
