:100000000C943C000C9459000C9459000C94590029
:100010000C9459000C9459000C9459000C945900FC
:100020000C9459000C9459000C9459000C945900EC
:100030000C9459000C94C2000C9459000C94590073
:100040000C940E010C945B000C9459000C94590014
:100050000C9459000C9459000C9459000C945900BC
:100060000C9459000C94AB000C9459000C9459005A
:100070000C9459000C94590011241FBECFEFCDBF32
:10008000DFE3DEBF18E3A0E0B8E3EAE1F5E002C099
:1000900005900D92A830B107D9F728E3A8E0B8E39E
:1000A00001C01D92A931B207E1F70E9428010C940A
:1000B0008B020C9400001F920F920FB60F92112426
:1000C0008F939F938091000880930208893309F4ED
:1000D0003FC0C0F4813361F148F48E3299F180332E
:1000E000A1F18C3241F485E090E024C0833399F093
:1000F000E0F0843321F19F918F910F900FBE0F900C
:100100001F9018958F3621F148F48B3661F38C36A9
:10011000C9F0853681F783E090E00CC0813741F06B
:10012000A0F0823761F0873731F782E090E002C0BB
:1001300081E090E08093173890931838DCCF84E00A
:1001400090E0F8CF86E090E0F5CF87E090E0F2CF46
:1001500088E090E0EFCF1F920F920FB60F9211241C
:100160008F9380910804809106388091063880939F
:10017000063881E08093960A8F910F900FBE0F9002
:100180001F9018951F920F920FB60F9211242F9364
:100190003F938F939F9380910438909105380196F7
:1001A00049F0809104389091053801968093043885
:1001B0009093053880911538909116382091043825
:1001C00030910538969587958217930721F4109200
:1001D000380A1092390A809113389091143881307E
:1001E0009105B1F088F082309105A1F00397A1F05C
:1001F00081E08093860A9F918F913F912F910F907C
:100200000FBE0F901F9018958EE38093C408F0CF17
:100210008BE6FBCF8EEBF9CF8BEEF7CF1F920F92D1
:100220000FB60F9211248F93EF93FF93E0E0F4E069
:1002300082E086838583E0ECF8E0838180688383B5
:10024000FF91EF918F910F900FBE0F901F90189517
:10025000F89425E02093210488E08093140480938F
:100260001504809316048093170483E18093010A98
:1002700030910E3885E896E202C0959587953A95BB
:10028000E2F78093260A9093270A1092280A109288
:10029000290A81E08093000A4DE655E04093080862
:1002A0005093090890E89093050890EC9093060805
:1002B0008093E3052093410492E09093050490938A
:1002C000010430E23093C00824E02093C1088093F9
:1002D000C2082091C00821602093C00845E05DE07D
:1002E00040938C0A50938D0A8093850A8093800AEC
:1002F0001092810A40939C0A50939D0A8093950A1C
:100300008093900A809300068EE0809301063093DC
:10031000020680E48093080680E3809309069093A8
:100320000C0681E180930A06789440910038509140
:1003300001386091023870910338DB01CA01B6952B
:10034000A7959795879540FD8427837090E0B0E04E
:10035000A0E080930F3890931038A0931138B09399
:1003600012388FEF8093C408A6EDB6E023E030E0AA
:1003700042E050E061E070E0C9EDDDE205E816E240
:100380008EEDE82E8CE1F82E9BE0C92E9DE4D92E4F
:100390008090100690901106A0901206B09013065F
:1003A000FFE0B694A79497948794FA95D1F78A9E24
:1003B000C0018B9E900D9A9E900D112486509F4FE8
:1003C00080931538909316388091080480930638EE
:1003D0009091063880910638892B80959091063847
:1003E00090910638E0911738F09118383197E8303D
:1003F000F105A0F4E250FE4F0C948502060237028C
:100400003C02410246024C0250020A02109213388A
:1004100010921438109217381092183884FF47C081
:10042000109213381092143880910A3890910B383A
:1004300080911338909114388130910509F459C096
:1004400008F44AC08230910509F457C0039709F4B3
:1004500058C08091360A9091370AE5E096958795C5
:10046000EA95E1F78093380A9093390A91CF609327
:10047000133870931438CECF4093133850931438F8
:10048000C9CF2093133830931438C4CF90910E38CD
:100490009F5F90930E38BECF90910E389150F9CF58
:1004A00010920E3810920C3810920D38B3CF85FF91
:1004B00005C04093133850931438B6CF86FF05C05B
:1004C0006093133870931438AFCF87FFADCF20936C
:1004D000133830931438A8CF80910E38F80102C039
:1004E000F595E7958A95E2F7E093360AF093370A97
:1004F000B0CF80910E38FE01F2CF80910E38F70117
:10050000EECF80910E38F601EACFEE0FFF1F059077
:0A051000F491E02D0994F894FFCF58
:08051A00AB3C02E2FFFFFF0011
:00000001FF
