:100000000C943C000C9459000C9459000C94590029
:100010000C9459000C9459000C9459000C945900FC
:100020000C9459000C9459000C9459000C945900EC
:100030000C9459000C9472000C9459000C945900C3
:100040000C94B1000C9459000C9459000C94590074
:100050000C9459000C9459000C9459000C945900BC
:100060000C9459000C945B000C9459000C945900AA
:100070000C9459000C94590011241FBECFEFCDBF32
:10008000DFE3DEBF18E3A0E0B8E3ECE8F3E002C092
:1000900005900D92AA30B107D9F728E3AAE0B8E39A
:1000A00001C01D92A631B207E1F70E94C6000C9470
:1000B000C4010C9400001F920F920FB60F921124EE
:1000C0008F9380910804809109388091093880933A
:1000D000093881E08093960A8F910F900FBE0F90A0
:1000E0001F9018951F920F920FB60F9211248F93A5
:1000F0009F9380911438909115380196809314380D
:100100009093153880911338882351F080910738E7
:1001100090910838809305389093063810921338E0
:10012000809111389091123881309105A1F078F0CA
:100130008230910591F0039791F081E08093860AD7
:100140009F918F910F900FBE0F901F9018958EE387
:100150008093C408F2CF8BE6FBCF8EEBF9CF8BEE0A
:10016000F7CF1F920F920FB60F9211248F93EF9338
:10017000FF93E0E0F4E082E086838583FF91EF91D6
:100180008F910F900FBE0F901F901895F89495E0E7
:100190009093210488E08093140480931504809345
:1001A00016048093170483E18093010A25E836E260
:1001B0002093260A3093270A1092280A1092290ABF
:1001C00081E08093000A8093E3059093410492E0DC
:1001D000909305049093010430E23093C00824E02A
:1001E0002093C1088093C2082091C0082160209309
:1001F000C00845E05DE040938C0A50938D0A8093DF
:10020000850A8093800A1092810A44E154E3409366
:100210009C0A50939D0A8093950A8093900A4DE61C
:1002200055E0409308085093090820E820930508FA
:1002300020EC20930608809300061092010630936C
:10024000020680E48093080680E380930906909379
:100250000C0681E180930A06789440910138509110
:1002600002386091033870910438DB01CA01B695F9
:10027000A7959795879540FD8427837090E0B0E01F
:10028000A0E080930D3890930E38A0930F38B09370
:1002900010388FEF8093C40829ED3DE245E856E21F
:1002A0006EED7CE1EBE0FDE4A1E0B0E0C2E0D0E087
:1002B00003E010E080910804809309389091093898
:1002C00080910938892B809590910938909109384F
:1002D00084FF2CC00093113810931238809111388C
:1002E000909112388130910509F442C0A0F182301A
:1002F000910509F441C0039709F442C08091360A80
:100300009091370A892F99278093380A9093390A58
:100310008091040887FFFCCF809100088B3651F64E
:1003200080910038815080930038C4CF85FF05C08C
:10033000C0931138D0931238D1CF86FF05C0A09357
:100340001138B0931238CACF87FFC8CF1092113836
:1003500010921238C3CF809100387A0102C0F59410
:10036000E7948A95E2F7E092360AF092370AC6CF10
:10037000809100387901F2CF809100387B01EECF77
:0C038000809100387F01EACFF894FFCF95
:0A038C0002AB3C02E201000100FF99
:00000001FF
