:100000000C943C000C9459000C9459000C94590029
:100010000C9459000C9459000C9459000C945900FC
:100020000C9459000C9459000C9459000C945900EC
:100030000C9459000C948D010C9459000C945900A7
:100040000C94A7010C94AE000C9459000C94590028
:100050000C9459000C9459000C9459000C945900BC
:100060000C9459000C9463010C9459000C945900A1
:100070000C9459000C94590011241FBECFEFCDBF32
:10008000DFE3DEBF28E3A0E2B8E301C01D92A334A2
:10009000B207E1F718E3A0E0B8E3E7E2F1E102C05C
:1000A00005900D92A032B107D9F70E94C1010C94BE
:1000B00082080C9400008091040887FFFCCF809197
:1000C000000890E008959091040895FFFCCF80937C
:1000D0000208082E000C990B0895CF93DF9310921D
:1000E0001638109217388091393820913338309172
:1000F0003438C091393850E040E087FF23C065EDC7
:100100007CED82E390E00E947605DD27C1950CF43A
:10011000D09502C0220F331FCA95E2F72093360A0A
:100120003093370A8091360A9091370A26E09695E7
:1001300087952A95E1F78093380A9093390ADF91E1
:10014000CF91089565ED7CED82E390E00E94760505
:1001500002C035952795CA95E2F7E0CF1F920F921E
:100160000FB60F9211242F933F934F935F936F938A
:100170007F938F939F93AF93BF93EF93FF93809160
:100180003B3890913C380497D9F1809100088093D6
:10019000020820913B3830913C382330310581F5FD
:1001A000893309F489C008F04EC0813309F460C076
:1001B00010F58E3209F462C0803309F468C08C32C5
:1001C000F9F48091393883302CF4809139388F5F7D
:1001D000809339388091360A9091370A9F938F9394
:1001E00082E191E99F938F930E94BD050F900F903C
:1001F0000F900F9005C0833381F1C0F18433E1F19A
:100200008091163890911738892B61F481E090E045
:1002100080931638909317381092380A1092390A42
:100220000E946D00FF91EF91BF91AF919F918F91CF
:100230007F916F915F914F913F912F910F900FBEE2
:100240000F901F9018958F36B9F148F48B3609F44A
:10025000B8CF8C3699F0853699F683E00AC081379D
:1002600039F0A8F0823741F0873751F682E001C0BB
:1002700081E080933A38C4CF84E0FBCF8091393855
:100280008F3F0CF4A7CF809139388150A1CF81E501
:1002900098E0A3E2B1E180931C3890931D38A093BD
:1002A0001E38B0931F388093183890931938A09354
:1002B0001A38B0931B38A4CF8BE090E080933B3882
:1002C00090933C389DCF1F920F920FB60F9211243E
:1002D0002F938F939F93909108042091153829278D
:1002E0009091373880913838892782238093383825
:1002F000909592239093373820911538892382273F
:100300008093153881E08093960A9F918F912F9169
:100310000F900FBE0F901F9018951F920F920FB65F
:100320000F9211248F939F93809135389091363896
:100330000196809335389093363881E08093860A11
:100340009F918F910F900FBE0F901F9018951F9245
:100350000F920FB60F9211248F93EF93FF93E0E06B
:10036000F4E082E086838583E0ECF8E083818068B6
:100370008383FF91EF918F910F900FBE0F901F908D
:100380001895F89495E09093210488E080931404E4
:1003900080931504809316048093170483E180935F
:1003A000010A1092280A1092290A81E08093000A1B
:1003B0008093E3059093410492E090930504909319
:1003C000010430E23093C00824E02093C1088093F8
:1003D000C2082091C00821602093C00845E05DE07C
:1003E00040938C0A50938D0A8093850A8093800AEB
:1003F0001092810A40939C0A50939D0A8093950A1B
:100400008093900A4CE655E0409308085093090801
:1004100020E82093050820EC20930608809300062E
:100420008FE0809301063093020680E480930806F3
:1004300080E38093090690930C0681E180930A067D
:10044000789484E098E380933F3890934038809389
:100450003D3890933E388FEF8093C408712CF1E5BE
:100460008F2EF8E09F2EF3E2AF2EF1E1BF2EC1E018
:10047000D0E0A6E02A2E312CB9EA4B2E512C03EC09
:1004800011E09CE1E92EFF24F39422E5C22EDD2445
:10049000D39440911006509111066091120670910C
:1004A0001306ECE07695679557954795EA95D1F751
:1004B00095E7949F9001959F300D112426503F4F52
:1004C000209331383093323860901538E0913B38C2
:1004D000F0913C38E930F10508F08DC0EE58FD4F41
:1004E0000C9495057B021B0340035403FB0270042C
:1004F000B8041B05540580911338909114389F93CC
:100500008F9385E191E99F938F930E94BD05809120
:1005100013389091143840912D3850912E386091B5
:100520002F3870913038B0E0A0E00F900F900F900E
:100530000F9084179507A607B70791F4C093163854
:10054000D09317381092380A1092390A8FEF80939F
:100550002C3883E090E080933B3890933C384BC03C
:100560001092353810923638C0933B38D0933C38CF
:1005700080912A3890912B38049719F140911C38BA
:1005800050911D3860911E3870911F38DB01CA01EF
:10059000B695A7959795879540FF08C02BEA8227C7
:1005A0002CE3922722E0A22722EEB22780931C3868
:1005B00090931D38A0931E38B0931F38837080939A
:1005C000293880912938823051F1BCF48130F9F01A
:1005D00080912D3890912E38A0912F38B0913038DD
:1005E0000196A11DB11D80932D3890932E38A093B4
:1005F0002F38B0933038862D4CCF8330B1F0843013
:1006000039F740923338509234388BE605C0C092A7
:100610003338D09234388EEB80932C38D9CFE09297
:100620003338F09234388BEEF7CF00933338109391
:1006300034388EE3F1CF8FEF8093C4088091313846
:10064000909132382091353830913638969587958B
:100650002817390758F0C0931638D09317381092DE
:10066000380A1092390A82E090E075CF80911638EE
:1006700090911738019709F0BECF0E946D00BBCF53
:100680002091353830913638809131389091323818
:100690002817390720F010923B3810923C3880918F
:1006A0002C388093C408A7CF90912C389093C4081D
:1006B000209116383091173821153105E9F1213094
:1006C000310509F098CF962D9095892390913A386D
:1006D000282F207130E041E050E0913011F050E0DF
:1006E00040E0242B352B232B09F49AC0C0923338D9
:1006F000D09234380E946D0010922838109235380C
:10070000109236388EEB80932C3881E08093273816
:100710008091233890912438A0912538B0912638C3
:100720000196A11DB11D8093233890932438A09386
:100730002538B09326385FCF9091283891110AC0A0
:100740008095962D907F892309F455CF81E0809381
:10075000283851CF20913538309136388091313852
:10076000909132382817390708F445CF8FEF8093DE
:100770002C3810923A381092353810923638C0938F
:100780001638D09317381092380A1092390A4091CF
:1007900018385091193860911A3870911B38DB0164
:1007A000CA01B695A7959795879540FF08C02BEA93
:1007B00082272CE3922722E0A22722EEB227809301
:1007C000183890931938A0931A38B0931B38837057
:1007D00090912738981321C02091123880911338B6
:1007E00090911438409123385091243860912538E5
:1007F00070912638B0E0A0E084179507A607B707E8
:1008000029F485E090E0213009F4A5CE2111F3CE42
:1008100020923B3830923C38EECE10921238F8CF0E
:1008200090913A38282F207230E041E050E0923029
:1008300011F050E040E0242B352B232B89F0E0927F
:100840003338F09234380E946D001092283810929C
:100850003538109236388BEE80932C3882E056CFA4
:1008600090913A38282F207430E041E050E09330E6
:1008700011F050E040E0242B352B232B89F000931E
:100880003338109334380E946D001092283810923B
:100890003538109236388EE380932C3883E036CF8B
:1008A00040913A38807890E021E030E0443011F017
:1008B00030E020E0822B932B892B09F49CCE4092D0
:1008C0003338509234380E946D00109228381092BC
:1008D0003538109236388BE680932C3884E016CF6A
:1008E00020913538309136388091313890913238B6
:1008F0002817390790F110923538109236388092C7
:100900001C3890921D38A0921E38B0921F388092E9
:10091000183890921938A0921A38B0921B38109259
:1009200023381092243810922538109226381092CD
:100930002D3810922E3810922F3810923038809126
:10094000133890911438019680931338909314388B
:1009500010923B3810923C384ECE809135389091B1
:10096000363880FF03C01092C40845CE80E899CE87
:100970002091353830913638809131389091323825
:100980002817390708F44DC01092353810923638C0
:1009900080911C3890911D38A0911E38B0911F385D
:1009A0008093183890931938A0931A38B0931B3855
:1009B000109223381092243810922538109226383D
:1009C00010922D3810922E3810922F381092303805
:1009D00021E020931238BF93AF939F938F9382E2CD
:1009E00091E99F938F930E94BD0580911838909153
:1009F0001938A0911A38B0911B38BF93AF939F93C9
:100A00008F9382E291E99F938F930E94BD0510928C
:100A10003B3810923C388DB79EB70C968DBF9EBF69
:100A2000EACD809135389091363880FF02C087E753
:100A300038CE87EF36CE809113389091143864E623
:100A400070E00E946205809313389093143880916F
:100A500013389091143820911338309114382B307A
:100A6000310578F4209135383091363820FF15C0A3
:100A70006AE070E00E946205FC01E85FFE4680814A
:100A800010CE20911338309114382A503109209318
:100A90001338309314387394DECFE72DF0E0E85F1D
:100AA000FE4680818068FDCD809113389091143886
:100AB000805D9091040895FFFCCF809302088AE046
:100AC00090E049CDAA1BBB1B51E107C0AA1FBB1F69
:100AD000A617B70710F0A61BB70B881F991F5A95CA
:100AE000A9F780959095BC01CD010895052E97FB3F
:100AF0001EF400940E948D0557FD07D00E949B05AF
:100B000007FC03D04EF40C948D055095409530951C
:100B100021953F4F4F4F5F4F089590958095709569
:100B200061957F4F8F4F9F4F0895EE0FFF1F0590E8
:100B3000F491E02D0994A1E21A2EAA1BBB1BFD0122
:100B40000DC0AA1FBB1FEE1FFF1FA217B307E407AC
:100B5000F50720F0A21BB30BE40BF50B661F771F04
:100B6000881F991F1A9469F76095709580959095E4
:100B70009B01AC01BD01CF010895B0E0A0E0E3EC22
:100B8000F5E00C946108AE014B5F5F4FFA01619193
:100B90007191AF0180913F38909140380E94D30508
:100BA000E2E00C947A08ABE0B0E0E9EDF5E00C94FB
:100BB00051087C013B018A01FC0116821782838166
:100BC00081FFC8C1CE0101965C01F7019381F30159
:100BD00093FD859193FF81913F01882309F453C1CF
:100BE000853239F493FD859193FF81913F018532E0
:100BF00029F4B70190E00E94C307E7CF912C212C84
:100C0000312CFFE1F31538F08B3211F190F4803282
:100C100009F1833229F137FC3CC020ED280F2A303E
:100C200050F536FE20C08AE0989E200D1124922EA9
:100C300006C08D3291F0803371F7689430F8F3017B
:100C400093FD859193FF81913F018111DACF21C0FE
:100C5000689431F8689432F8F2CF689433F8EFCFA3
:100C6000689434F8ECCFEAE02E9E200D1124222E59
:100C7000689435F8E4CF8E3229F436FC04C16894C8
:100C800036F8DDCF8C3619F4689437F8D8CF88362B
:100C9000B1F2982F9F7D95549330E0F08336A1F107
:100CA0008337C1F1833509F063C02801F2E04F0EAC
:100CB000511CF801C080D180692D70E036FC02C063
:100CC0006FEF7FEFC6010E94AD074C01689437F8C3
:100CD00082010AC00C5F1F4FFFE3F98388248394CD
:100CE000912C6501E89437F833FE2DC0522C811405
:100CF000910471F5552009F468CFB70180E290E0C6
:100D00000E94C3075A94F6CFF801808189830E5F51
:100D10001F4FE4CF2801F2E04F0E511CF801C080B4
:100D2000D180692D70E036FC02C06FEF7FEFC60105
:100D30000E94B8074C018201D5CFB70180E290E054
:100D40000E94C3072A942814190409F0B0F7CECFE3
:100D5000F60137FC859137FE81916F01B70190E074
:100D60000E94C30751105A94F1E08F1A9108BFCF27
:100D7000843619F0893609F077C0F80137FE6BC068
:100D800060817181828193810C5F1F4FF32DFF760B
:100D90003F2E97FF09C090958095709561957F4F84
:100DA0008F4F9F4F689437F82AE030E0A5010E94EA
:100DB000F307C82ECA188C2C432C36FE0CC0E894BE
:100DC00040F8C91440F434FE05C032FC03C0F32DD2
:100DD000FE7E4F2E892C44FE95C0FE01EC0DF11DC8
:100DE0008081803309F087C0242D297E422E842DF6
:100DF0008870582E43FC95C040FE8FC09C2C8214F6
:100E000018F42C0C922C981844FE91C0B70180E382
:100E100090E00E94C30742FE09C088E790E041FECF
:100E200002C088E590E0B7010E94C307C91408F426
:100E30008AC0CA94D12C9FEFC91AD90ACA0CDB1CEC
:100E4000F60182916F01B70190E00E94C307AC14D4
:100E5000BD04B1F74FCF60817181072E000C880B64
:100E6000990B0E5F1F4F92CFD32CE894D4F82AE051
:100E700030E0853739F1232D297FD22E8F3601F1CD
:100E800048F48835A9F0F701868197812B96E2E135
:100E90000C946A08803749F08837A9F7D4FE02C05D
:100EA0006894D2F820E130E00DC06894D4F8F6CF11
:100EB00034FE03C0822F8660D82E20E132E002C0CB
:100EC00028E030E0F801D7FE0FC060817181828197
:100ED00093810C5F1F4FA5010E94F307C82ECA180B
:100EE0003D2CE89437F867CF6081718190E080E015
:100EF0000E5F1F4FF0CF42FC02C0839478CF8394E3
:100F0000839475CF842D867809F471CFF6CFB7011D
:100F100080E290E00E94C30783948214C0F3512CB6
:100F200073CF522C5818821408F46ECFF8CF842D4A
:100F3000867809F47BCF8BE241FE80E247FC8DE2AC
:100F4000B70190E071CFB70180E390E00E94C30742
:100F50009A946CCF8FEF9FEF99CFFC010590615071
:100F600070400110D8F7809590958E0F9F1F0895BF
:100F7000FC016150704001900110D8F78095909568
:100F80008E0F9F1F08950F931F93CF93DF93182FFA
:100F9000092FEB018B8181FD09C01FEF0FEF812F1E
:100FA000902FDF91CF911F910F91089582FF14C070
:100FB0002E813F818C819D81281739073CF4E8817F
:100FC000F981CF0101968883998310838E819F8157
:100FD00001968E839F83E3CFE885F985812F09955C
:100FE000892BA1F3DACFFA01AA27283051F1203159
:100FF00081F1E8946F936E7F6E5F7F4F8F4F9F4FAD
:10100000AF4FB1E03ED0B4E03CD0670F781F891FEE
:101010009A1FA11D680F791F8A1F911DA11D6A0FBC
:10102000711D811D911DA11D20D009F468943F916F
:101030002AE0269F11243019305D3193DEF6CF016E
:101040000895462F4770405D4193B3E00FD0C9F734
:10105000F6CF462F4F70405D4A3318F0495D31FDA1
:101060004052419302D0A9F7EACFB4E0A6959795F4
:10107000879577956795BA95C9F7009761057105CA
:1010800008959B01AC010A2E069457954795379514
:101090002795BA95C9F7620F731F841F951FA01D6E
:1010A00008952F923F924F925F926F927F928F920C
:1010B0009F92AF92BF92CF92DF92EF92FF920F93E7
:1010C0001F93CF93DF93CDB7DEB7CA1BDB0BCDBF2A
:1010D000DEBF09942A88398848885F846E847D84BD
:1010E0008C849B84AA84B984C884DF80EE80FD80D0
:1010F0000C811B81AA81B981CE0FD11DCDBFDEBF6E
:08110000ED010895F894FFCF02
:10110800086B44412311104B00012564004C65769F
:0F111800656C2069732025640A00256C780A0035
:10112700D007D007000000030000000063005B0049
:101137000000010100FF010051082311510823118C
:00000001FF
