:100000000C943C000C9459000C9459000C94590029
:100010000C9459000C9459000C9459000C945900FC
:100020000C9459000C9459000C9459000C945900EC
:100030000C9459000C94B3010C9459000C94590081
:100040000C94CD010C94AB000C9459000C94590005
:100050000C9459000C9459000C9459000C945900BC
:100060000C9459000C9489010C9459000C9459007B
:100070000C9459000C94590011241FBECFEFCDBF32
:10008000DFE3DEBF28E3A6E2B8E301C01D92A0359E
:10009000B207E1F718E3A0E0B8E3E4E0FCE002C057
:1000A00005900D92A632B107D9F70E94E7010C9492
:1000B000FB050C9400008091040887FFFCCF809121
:1000C000000890E008959091040895FFFCCF80937C
:1000D0000208082E000C990B0895CF93DF9310921D
:1000E0001A3810921B388091463820913B38309155
:1000F0003C38C091463850E040E087FF20C065EDB5
:100100007CED82E390E00E94B405DD27C1950CF4FC
:10011000D09502C0220F331FCA95E2F72093360A0A
:100120003093370A8091360A9091370A96958795D1
:100130008093380A9093390ADF91CF91089565ED45
:100140007CED82E390E00E94B40502C035952795CE
:10015000CA95E2F7E3CF1F920F920FB60F921124C8
:100160002F933F934F935F936F937F938F939F93BF
:10017000AF93BF93EF93FF9380910008209148388D
:10018000309149382115310539F12130310509F413
:100190007AC080911A3890911B38892B61F481E0E4
:1001A00090E080931A3890931B381092380A10927E
:1001B000390A0E946D00FF91EF91BF91AF919F911D
:1001C0008F917F916F915F914F913F912F910F9000
:1001D0000FBE0F901F901895893309F44DC0E0F4BD
:1001E000813389F188F48E3209F471C0803379F15A
:1001F0008C3279F68091463883305CF680914638AF
:100200008F5F80934638C5CF833389F0D0F0843335
:1002100009F0BFCF84E018C08F3671F150F48B36EF
:1002200049F38C3609F453C0853609F0B2CF83E028
:100230000BC0813741F058F0823761F3873709F0FE
:10024000A8CF82E001C081E080934738A2CF81E54A
:1002500098E0A3E2B1E18093213890932238A093F3
:100260002338B093243880931D3890931E38A09380
:100270001F38B09320388DCF81E090E080934838CC
:100280009093493886CF8E3211F1E0F48C3209F424
:10029000B1CF20ED280F2A3018F19FE9980F29EAF5
:1002A000280F9630E8F0809141388F5F8093413875
:1002B000893008F46ECF10921C3810924838109292
:1002C000493867CF8B3609F495CF8C3611F780917A
:1002D00046388F3F0CF45DCF80914638815091CFE6
:1002E0008091423890914338A0914438B09145387C
:1002F00034E0880F991FAA1FBB1F3A95D1F7822BB4
:100300008093423890934338A0934438B093453853
:10031000CACF1F920F920FB60F9211242F938F9373
:100320009F939091080420911938292790913F3884
:10033000809140388927822380934038909592237A
:1003400090933F3820911938892382278093193858
:1003500081E08093960A9F918F912F910F900FBE0D
:100360000F901F9018951F920F920FB60F921124A5
:100370008F939F9380913D3890913E380196809362
:100380003D3890933E3881E08093860A9F918F910B
:100390000F900FBE0F901F9018951F920F920FB6DF
:1003A0000F9211248F93EF93FF93E0E0F4E082E04B
:1003B00086838583E0ECF8E0838180688383FF9106
:1003C000EF918F910F900FBE0F901F901895F8949A
:1003D00095E09093210488E08093140480931504A1
:1003E000809316048093170483E18093010A10928E
:1003F000280A1092290A81E08093000A8093E3057D
:100400009093410492E0909305049093010430E2AC
:100410003093C00824E02093C1088093C208209143
:10042000C00821602093C00845E05DE040938C0A3D
:1004300050938D0A8093850A8093800A1092810AD6
:1004400040939C0A50939D0A8093950A8093900A4A
:100450004CE655E0409308085093090820E82093A3
:10046000050820EC20930608809300068FE0809317
:1004700001063093020680E48093080680E38093AF
:10048000090690930C0681E180930A06789484E033
:1004900098E380934C3890934D3880934A389093EA
:1004A0004B388FEF8093C408912CB12CF5E78F2E39
:1004B000AAE06A2E712CC1E0D0E0B6E02B2E312CE0
:1004C00019EA412E512C03EC11E09CE1E92EFF24A6
:1004D000F39422E5C22EDD24D3944091100650916E
:1004E00011066091120670911306ECE076956795FF
:1004F00057954795EA95D1F7849E9001859E300DDA
:10050000112426503F4F2093393830933A38A09029
:100510001938E0913738F0913838E930F10508F0B2
:1005200077C0EB56FD4F0C94D3059E02280364035D
:10053000080308038604EE045805840580911738E3
:100540009091183840913338509134386091353853
:1005500070913638B0E0A0E084179507A607B7077A
:1005600091F4C0931A38D0931B381092380A109225
:10057000390A8FEF8093323882E090E080933738E9
:100580009093383845C010923D3810923E38C09351
:100590003738D093383840912138509122386091C3
:1005A000233870912438DB01CA01B695A795979539
:1005B000879540FF08C02BEA82272CE3922722E090
:1005C000A22722EEB2278093213890932238A0935D
:1005D0002338B09324388370809331388091313838
:1005E000823051F1BCF48130F9F080913338909130
:1005F0003438A0913538B09136380196A11DB11D1F
:100600008093333890933438A0933538B09336388C
:100610008A2D63CF8330B1F0843039F740923B3874
:1006200050923C388BE605C0C0923B38D0923C38A3
:100630008EEB80933238D9CFE0923B38F0923C3841
:100640008BEEF7CF00933B3810933C388EE3F1CF1D
:100650008091393890913A3820913D3830913E3828
:10066000969587952817390718F40E946D00D0CF0A
:1006700020913D3830913E388091393890913A3808
:100680002817390768F4C0931A38D0931B38109292
:10069000380A1092390A809132388093C408B8CF52
:1006A00020913D3830913E388091393890913A38D8
:1006B0008217930708F0ACCF8FEF8093C408109295
:1006C000373810923838A4CF909132389093C408BC
:1006D00020911A3830911B3821153105E9F121306C
:1006E000310509F095CF9A2D90958923909147383F
:1006F000282F207130E041E050E0913011F050E0BF
:1007000040E0242B352B232B09F4A0C0C0923B38AA
:10071000D0923C380E946D001092303810923D38D3
:1007200010923E388EEB8093323881E080932F38E0
:1007300080912B3890912C38A0912D38B0912E3883
:100740000196A11DB11D80932B3890932C38A09356
:100750002D38B0932E385CCF90913038911110C065
:1007600080959A2D907F892321F081E08093303805
:100770004FCF9091473880912F38981349CFF5CFBC
:1007800020913D3830913E388091393890913A38F7
:100790002817390708F43CCF8FEF80933238109236
:1007A000473810923D3810923E38C0931A38D09393
:1007B0001B381092380A1092390A40911D38509116
:1007C0001E3860911F3870912038DB01CA01B69540
:1007D000A7959795879540FF08C02BEA82272CE3C1
:1007E000922722E0A22722EEB22780931D38909311
:1007F0001E38A0931F38B0932038837090912F3803
:10080000981321C02091163880911738909118388C
:1008100040912B3850912C3860912D3870912E38A2
:10082000B0E0A0E084179507A607B70729F42130A8
:1008300019F485E090E0A2CE2111EACE209237385B
:1008400030923838E5CE10921638F8CF909147386C
:10085000282F207230E041E050E0923011F050E05B
:1008600040E0242B352B232B89F0E0923B38F0928B
:100870003C380E946D001092303810923D38109232
:100880003E388BEE8093323882E050CF90914738DB
:10089000282F207430E041E050E0933011F050E018
:1008A00040E0242B352B232B89F000933B38109309
:1008B0003C380E946D001092303810923D381092F2
:1008C0003E388EE38093323883E030CF4091473812
:1008D000807890E021E030E0443011F030E020E01A
:1008E000822B932B892B09F493CE40923B38509264
:1008F0003C380E946D001092303810923D381092B2
:100900003E388BE68093323884E010CF20913D381A
:1009100030913E388091393890913A38281739070C
:1009200008F451C08091123890911338A091143876
:10093000B09115388093213890932238A0932338B2
:10094000B093243880931D3890931E38A0931F389D
:10095000B093203880911C3881111BC0809142389F
:1009600090914338A0914438B09145388093213814
:1009700090932238A0932338B09324388093123870
:1009800090931338A0931438B093153881E0809376
:100990001C3810922B3810922C3810922D3810924F
:1009A0002E38109233381092343810923538109215
:1009B00036388091173890911838019680931738FF
:1009C0009093183879CE80913D3890913E3880FFD1
:1009D00003C01092C4081CCE80E85FCE80912138FD
:1009E00090912238A0912338B09124388093123806
:1009F00090931338A0931438B093153880931D3812
:100A000090931E38A0931F38B093203880911C38E3
:100A100081111BC08091423890914338A091443895
:100A2000B09145388093213890932238A093233891
:100A3000B09324388093123890931338A0931438CD
:100A4000B093153881E080931C3820913D38309167
:100A50003E388091393890913A3828173907E0F0BC
:100A600010923D3810923E3810922B3810922C384C
:100A700010922D3810922E3810923338109234384C
:100A8000109235381092363881E080931638C09332
:100A90001738D093183810CE80913D3890913E3859
:100AA00080FF02C087E7F9CD97EF9093C408B0CDDF
:100AB000809117389091183885369105F8F080911B
:100AC00017389091183864E670E00E94A005282F2E
:100AD0006AE00E949405992E2B3068F480913D388D
:100AE00090913E3880FF94CDEB2DF0E0E650F44736
:100AF00080818068D2CD2A50B394EECFE92DF0E00A
:100B0000E650F4478081C9CD80911738909118380C
:100B1000805D9091040895FFFCCF8093020860925D
:100B200037387092383874CD991B79E004C0991F1A
:100B3000961708F0961B881F7A95C9F78095089537
:100B4000AA1BBB1B51E107C0AA1FBB1FA617B707F3
:100B500010F0A61BB70B881F991F5A95A9F780950F
:100B60009095BC01CD010895052E97FB1EF40094CD
:100B70000E94CB0557FD07D00E94D90507FC03D082
:100B80004EF40C94CB0550954095309521953F4FF0
:100B90004F4F5F4F089590958095709561957F4F69
:100BA0008F4F9F4F0895EE0FFF1F0590F491E02D9A
:100BB0000994A1E21A2EAA1BBB1BFD010DC0AA1F9E
:100BC000BB1FEE1FFF1FA217B307E407F50720F0B6
:100BD000A21BB30BE40BF50B661F771F881F991F31
:100BE0001A9469F760957095809590959B01AC017A
:0A0BF000BD01CF010895F894FFCF76
:0A0BFA00086B44412311104B000169
:100C0400D007D007000000030000000063005B0071
:100C1400000051082311010100FF010001510823C4
:060C24001151082311002C
:00000001FF
