:100000000C943C000C9459000C9459000C94590029
:100010000C9459000C9459000C9459000C945900FC
:100020000C9459000C9459000C9459000C945900EC
:100030000C9459000C9419010C9459000C9459001B
:100040000C9433010C9499000C9459000C945900B1
:100050000C9459000C9459000C9459000C945900BC
:100060000C9459000C94EF000C9459000C94590016
:100070000C9459000C94590011241FBECFEFCDBF32
:10008000DFE3DEBF18E3A0E0B8E3ECECF9E002C088
:1000900005900D92A631B107D9F728E3A6E1B8E3A0
:1000A00001C01D92A433B207E1F70E944D010C94E8
:1000B000DF040C940000CF93DF931092113810925C
:1000C00012388091143820912C3830912D38C091FD
:1000D000143850E040E087FD1CC065ED7CED82E304
:1000E00090E00E94A00402C035952795CA95E2F7DA
:1000F0002093360A3093370A8091360A9091370A56
:10010000969587958093380A9093390ADF91CF911D
:10011000089565ED7CED82E390E00E94A004DD2768
:10012000C1950CF4D09502C0220F331FCA95E2F797
:10013000DFCF1F920F920FB60F9211248F939F93D0
:100140008091000880930208893309F445C0D8F4EF
:10015000813399F160F48E32C1F18033D1F18C3268
:1001600059F4809114388F5F8093143805C083331D
:1001700099F0E0F0843331F19F918F910F900FBE91
:100180000F901F9018958F3639F148F48B3649F34C
:100190008C36D9F0853681F782E090E009C081374E
:1001A00061F0B8F0823771F0873731F781E090E085
:1001B0008093323890933338DFCF109232381092D8
:1001C0003338DACF83E090E0F3CF80911438815058
:1001D000CBCF86E090E0ECCF87E090E0E9CF1F92B4
:1001E0000F920FB60F9211242F938F939F9390919C
:1001F00008042091133829279091303880913138A4
:1002000089278223809331389095922390933038B8
:1002100020911338892382278093133881E08093BB
:10022000960A9F918F912F910F900FBE0F901F9064
:1002300018951F920F920FB60F9211248F939F93D0
:1002400080912E3890912F38019680932E3890937C
:100250002F3881E08093860A9F918F910F900FBE77
:100260000F901F9018951F920F920FB60F921124A6
:100270008F93EF93FF93E0E0F4E082E08683858341
:10028000E0ECF8E0838180688383FF91EF918F91A8
:100290000F900FBE0F901F901895CF93DF9300D053
:1002A0001F92CDB7DEB7F89495E09093210488E0D3
:1002B000809314048093150480931604809317048C
:1002C00083E18093010A1092280A1092290A81E0A2
:1002D0008093000A8093E3059093410492E0909309
:1002E00005049093010430E23093C00824E0209389
:1002F000C1088093C2082091C00821602093C008E3
:1003000045E05DE040938C0A50938D0A8093850A06
:100310008093800A1092810A44E154E340939C0A3E
:1003200050939D0A8093950A8093900A4CE655E07D
:10033000409308085093090820E82093050820EC12
:1003400020930608809300068EE080930106309388
:10035000020680E48093080680E380930906909368
:100360000C0681E180930A0678948FEF8093C4088D
:100370008093C4081A821B82FF24FA94FAE04F2E5D
:10038000512C612C712CA6E0AA2EB12C01E010E0BA
:10039000BCE12B2E3324339482E5882E9924939448
:1003A00020911006309111064091120650911306CB
:1003B000AFEAB0E00E94C5044AE0489F9001499F1F
:1003C000300D1124C90186509F4F80932A38909395
:1003D0002B38809113388983E0912838F09129389F
:1003E000E730F10508F070C0E850FE4F0C94BF04F0
:1003F000FF018802AD02C102EB030A041F04409111
:100400002438509125386091263870912738809192
:100410000D3890910E38A0910F38B09110384817D0
:1004200059076A077B0791F400931138109312382B
:100430001092380A1092390A8FEF8093233883E0A4
:1004400090E080932838909329383EC010922E383F
:1004500010922F380093283810932938C09009380B
:10046000D0900A38E0900B38F0900C38D701C601D4
:10047000B695A79597958795C0FE08C02BEA822769
:100480002CE3922722E0A22722EEB227809309389C
:1004900090930A38A0930B38B0930C3883708093F4
:1004A000223880912238823029F184F48130D1F0D1
:1004B0004F5F5F4F6F4F7F4F4093243850932538E5
:1004C0006093263870932738F9806ACF8330C1F063
:1004D000843071F789EA90E080932C3890932D381E
:1004E0008BE605C080922C3890922D388EEB80934D
:1004F0002338DECF20922C3830922D388BEEF7CF78
:1005000083EC91E080932C3890932D388EE3EFCFDD
:100510008FEF8093C40880912A3890912B382091D6
:100520002E3830912F38969587952817390758F02F
:1005300000931138109312381092380A1092390A29
:1005400082E090E07ECF809111389091123801972F
:1005500009F0BACF0E945B00B7CF20912E383091BE
:100560002F3880912A3890912B382817390720F09E
:100570001092283810922938809123388093C4082B
:10058000A3CF809123388093C40880911138909133
:100590001238009709F44AC0019709F4A4C04091A9
:1005A00024385091253860912638709127388091F1
:1005B0001B3890911C38A0911D38B0911E384817F7
:1005C00059076A077B0709F07FCF60912138409176
:1005D0002E3850912F3820912A3830912B3881E0D5
:1005E00090E04217530710F490E080E070E086231B
:1005F0009723892B09F468CF10922E3810922F3848
:1006000000931138109312381092380A1092390A58
:1006100085E090E0809328389093293880910438C1
:10062000813009F051CF84E090E00BCF80912138E8
:1006300081110AC0F0948981807FF82209F4AFCF3C
:1006400081E080932138ABCF20912E3830912F3824
:1006500080912A3890912B382817390708F49FCFBA
:1006600081E0809320388FEF8093233800931138F6
:10067000109312381092380A1092390A40910538B6
:10068000509106386091073870910838DB01CA0133
:10069000B695A7959795879540FF08C02BEA8227C6
:1006A0002CE3922722E0A22722EEB227809305387E
:1006B00090930638A0930738B093083883709091D0
:1006C0001F38981308C08091040885FFFCCF80E78D
:1006D0008093020864CF109204388091040885FF4B
:1006E000FCCF86E6F5CF898180958F21C0901B389D
:1006F000D0901C38E0901D38F0901E3884FF20C048
:1007000080922C3890922D380E945B008091213885
:1007100010922E3810922F388EEB8093233881E080
:1007200080931F384FEFC41AD40AE40AF40AC09227
:100730001B38D0921C38E0921D38F0921E382FCF13
:1007400085FF18C020922C3830922D380E945B0013
:100750008091213810922E3810922F388BEE809392
:10076000233882E080931F388FEFC81AD80AE80A2E
:10077000F80ADDCF86FF1AC083EC91E080932C3815
:1007800090932D380E945B008091213810922E3872
:1007900010922F388EE38093233883E080931F38A4
:1007A0009FEFC91AD90AE90AF90AC1CF87FFF7CE24
:1007B00089EA90E080932C3890932D380E945B005A
:1007C0008091213810922E3810922F388BE680932A
:1007D000233884E0E3CF20912E3830912F38809158
:1007E0002A3890912B382817390748F010922E3864
:1007F00010922F38A0922838B092293865CE809177
:100800002E3890912F3880FF03C01092C4085CCE20
:1008100080E8B4CE20912E3830912F3880912A383C
:1008200090912B382817390708F780912E3890912E
:100830002F3880FF02C081E0A1CE81E89FCE9A814F
:10084000911147C060910D3870910E3880910F382A
:100850009091103824E630E040E050E00E947E04A1
:1008600060930D3870930E3880930F389093103842
:1008700060910D3870910E3880910F38909110383A
:10088000A30192010E947E046A8380910D389091A9
:100890000E38A0910F38B09110380B97A105B10513
:1008A00008F412CE80910D3890910E38A0910F3837
:1008B000B09110380A97A109B10980930D3890932F
:1008C0000E38A0930F38B09310382B812F5F2B83F5
:1008D000DCCF80912E3890912F3880FF07C04A815D
:1008E000E42FF0E0EE53F647808148CE8B81E82F6D
:1008F000F0E0EE53F6478081806840CEA1E21A2EE8
:10090000AA1BBB1BFD010DC0AA1FBB1FEE1FFF1FB3
:10091000A217B307E407F50720F0A21BB30BE40B03
:10092000F50B661F771F881F991F1A9469F760954A
:100930007095809590959B01AC01BD01CF01089504
:10094000052E97FB1EF400940E94B70457FD07D0B4
:100950000E947E0407FC03D04EF40C94B70450951B
:100960004095309521953F4F4F4F5F4F089590959B
:100970008095709561957F4F8F4F9F4F0895EE0F33
:10098000FF1F0590F491E02D09940E94D004A59FCB
:10099000900DB49F900DA49F800D911D112408957A
:1009A000A29FB001B39FC001A39F700D811D1124B0
:1009B000911DB29F700D811D1124911D0895F89411
:0209C000FFCF67
:0A09C200086B44412311104B0001A3
:1009CC00D007D0070151082311510823110300004F
:0609DC00000100FFFC0019
:00000001FF
