:100000000C943C000C9459000C9459000C94590029
:100010000C9459000C9459000C9459000C945900FC
:100020000C9459000C9459000C9459000C945900EC
:100030000C9459000C94E3000C9459000C94590052
:100040000C94FD000C94AB000C9459000C945900D6
:100050000C9459000C9459000C9459000C945900BC
:100060000C9459000C94B9000C9459000C9459004C
:100070000C9459000C94590011241FBECFEFCDBF32
:10008000DFE3DEBF28E3A0E2B8E301C01D92A9339D
:10009000B207E1F718E3A0E0B8E3ECE4F8E002C04F
:1000A00005900D92A032B107D9F70E9417010C9468
:1000B0001F040C9400008091040887FFFCCF8091FE
:1000C000000890E008959091040895FFFCCF80937C
:1000D0000208082E000C990B0895CF93DF9310921D
:1000E0001C3810921D3880912E3820912C38309178
:1000F0002D38C0912E3850E040E087FF20C065EDDC
:100100007CED82E390E00E94DE03DD27C1950CF4D4
:10011000D09502C0220F331FCA95E2F72093360A0A
:100120003093370A8091360A9091370A96958795D1
:100130008093380A9093390ADF91CF91089565ED45
:100140007CED82E390E00E94DE0302C035952795A6
:10015000CA95E2F7E3CF1F920F920FB60F921124C8
:100160008F93809100088F910F900FBE0F901F907A
:1001700018951F920F920FB60F9211242F938F9301
:100180009F939091080420911E382927909131382F
:100190008091323889278223809332389095922338
:1001A0009093313820911E388923822780931E38FE
:1001B00081E08093960A9F918F912F910F900FBEAF
:1001C0000F901F9018951F920F920FB60F92112447
:1001D0008F939F9380912F38909130380196809320
:1001E0002F389093303881E08093860A9F918F91C9
:1001F0000F900FBE0F901F9018951F920F920FB681
:100200000F9211248F93EF93FF93E0E0F4E082E0EC
:1002100086838583E0ECF8E0838180688383FF91A7
:10022000EF918F910F900FBE0F901F901895CF9365
:10023000DF9300D01F92CDB7DEB7F89495E090938E
:10024000210488E08093140480931504809316049D
:100250008093170483E18093010A1092280A109278
:10026000290A81E08093000A8093E305909341047A
:1002700092E0909305049093010430E23093C0081B
:1002800024E02093C1088093C2082091C008216017
:100290002093C00845E05DE040938C0A50938D0A9E
:1002A0008093850A8093800A1092810A40939C0A69
:1002B00050939D0A8093950A8093900A4CE655E0EE
:1002C000409308085093090820E82093050820EC83
:1002D00020930608809300061092010630930206D0
:1002E00080E48093080680E38093090690930C06CF
:1002F00081E180930A06789484E098E3809335380E
:100300009093363880933338909334388FEF8093BE
:10031000C408C12CD12C7601812C912C5401198256
:100320001B822FEF66246394712CA1E52A2EA8E08E
:100330003A2EA3E24A2EA1E15A2E40911006509186
:1003400011066091120670911306ECE076956795A0
:1003500057954795EA95D1F735E7349FC001359F0A
:10036000900D112488509F4F80932A3890932B38FA
:1003700000911E388091283890912938823091055B
:1003800009F4D1C0F0F4009709F442C0813091051E
:10039000B1F420912A3830912B3840912F38509168
:1003A0003038369527954217530708F091C00E94C0
:1003B0006D008FEF8093C40802C02FEF2A83202F97
:1003C000BCCF8330910509F4AAC10497C1F780918D
:1003D000123890911338A0911438B0911538809349
:1003E000163890931738A0931838B0931938209185
:1003F0002F383091303880912A3890912B38281737
:10040000390708F482C160921A3870921B3886C08E
:1004100080911A3890911B38B0E0A0E088159905BA
:10042000AA05BB0539F482E090E0809328389093C8
:100430002938C5CF10922F38109230384091163895
:10044000509117386091183870911938DB01CA0142
:10045000B695A7959795879540FF08C02BEA822708
:100460002CE3922722E0A22722EEB22780931638AF
:1004700090931738A0931838B0931938837082304E
:1004800069F08330E9F0813089F482E591E080936E
:100490002C3890932D389EEB9A8308C02CE131E0E4
:1004A00020932C3830932D383BEE3A832FEF821A6D
:1004B000920AA20AB20A60922838709229387FCF35
:1004C00083EC91E080932C3890932D389EE3E4CF19
:1004D00040912F385091303820912A3830912B3864
:1004E0004217530760F480931C3890931D38109284
:1004F000380A1092390A3A813093C40860CF2091AB
:100500002F383091303880912A3890912B38281725
:10051000390708F454CF8FEF8093C408109228381D
:10052000109229384CCF8A818093C40880911C385E
:1005300090911D380097E1F0019709F040CF802F8E
:100540008095282324FF9FC082E591E080932C387A
:1005500090932D389FEFC91AD90AE90AF90A109227
:100560002F38109230380E946D0011E02EEB26CF0C
:100570008091273881110AC02095802F807F282301
:1005800009F41DCF91E09093273819CF20912F388F
:100590003091303880912A3890912B3828173907BC
:1005A00008F40DCF60921C3870921D381092380AF2
:1005B0001092390A10922F38109230384091123828
:1005C000509113386091143870911538DB01CA01CD
:1005D000B695A7959795879540FF08C02BEA822787
:1005E0002CE3922722E0A22722EEB2278093123832
:1005F00090931338A0931438B09315388370181360
:100600003BC080911A3890911B38B0E0A0E08C1567
:100610009D05AE05BF0509F0D2CE80911A389091A4
:100620001B3864E670E00E94CA03282F80911A38B4
:1006300090911B386AE070E00E94CA0389832A30D7
:10064000B0F480911A3890911B38019680931A3833
:1006500090931B3883E090E080932838909329385A
:10066000C12CD12C7601812C912C5401A8CE2A507A
:100670003B813F5F3B83E3CF24E030E02093283889
:1006800030932938EDCF25FF14C08CE191E08093A1
:100690002C3890932D389FEFC91AD90AE90AF90A24
:1006A00010922F38109230380E946D0012E02BEE1D
:1006B00085CE26FF14C083EC91E080932C38909374
:1006C0002D389FEFC91AD90AE90AF90A10922F3872
:1006D000109230380E946D0013E02EE36FCE27FF9A
:1006E0006CCE89EA90E080932C3890932D389FEF60
:1006F000C91AD90AE90AF90A10922F38109230382B
:100700000E946D0014E02BE659CE80912F38909115
:10071000303880FF02C087E74DCE87EF4BCE209167
:100720002F383091303880912A3890912B38281703
:10073000390788F0209216383092173840921838CE
:10074000509219382092123830921338409214384F
:1007500050921538E3CE80912F389091303880FF39
:1007600007C03981E32FF0E0EE5BF747808122CEAE
:1007700080911A3890911B380A9720F48B81882336
:1007800009F41DCE9B81E92FF0E0EE5BF7478081F5
:10079000806810CEAA1BBB1B51E107C0AA1FBB1F5C
:1007A000A617B70710F0A61BB70B881F991F5A95FD
:1007B000A9F780959095BC01CD010895052E97FB72
:1007C0001EF400940E94F50357FD07D00E94FD031C
:1007D00007FC03D04EF40C94F503509540953095EA
:1007E00021953F4F4F4F5F4F08959095809570959D
:1007F00061957F4F8F4F9F4F0895A1E21A2EAA1B3C
:10080000BB1BFD010DC0AA1FBB1FEE1FFF1FA217C0
:10081000B307E407F50720F0A21BB30BE40BF50BBD
:10082000661F771F881F991F1A9469F76095709546
:10083000809590959B01AC01BD01CF010895F8947E
:02084000FFCFE8
:0A084200086B44412311104B000124
:10084C00D007D007000000030000000063005B002D
:10085C000000510823115108231101000100FF0071
:00000001FF
